:100000000C9462000C948A000C948A000C948A0070
:100010000C948A000C948A000C948A000C948A0038
:100020000C948A000C948A000C948A000C948A0028
:100030000C948A000C9492040C948A000C948A000C
:100040000C9454050C948A000C94FE060C944507FD
:100050000C948A000C948A000C948A000C948A00F8
:100060000C948A000C948A000000000024002700F1
:100070002A0000000000250028002B0000000000DE
:1000800023002600290004040404040404040202DA
:100090000202020203030303030301020408102007
:1000A0004080010204081020010204081020000012
:1000B0000007000201000003040600000000000029
:1000C0000000BC0811241FBECFEFD8E0DEBFCDBFBB
:1000D00011E0A0E0B1E0E6ECF5E102C005900D9280
:1000E000A032B107D9F711E0A0E2B1E001C01D9242
:1000F000AE3DB107E1F710E0C4ECD0E004C02297B8
:10010000FE010E94A60AC23CD107C9F70E940C0951
:100110000C94E10A0C940000AEE0B0E0E2E9F0E0FB
:100120000C94B80A0D891E8986E08C831A83098392
:100130008FEF9FE79E838D839E01275E3F4FCE0109
:1001400001966F89788DA9010E94B0002F813885B2
:10015000020F131FF80110822E96E4E00C94D40ACB
:10016000ABE0B0E0E6EBF0E00C94AA0A3C012B0116
:100170005A01FC0117821682838181FD03C06FEF53
:100180007FEFC6C19AE0892E1E010894211C311C04
:10019000F3012381F20123FD859123FF81912F013A
:1001A000882309F4B2C1853239F423FD859123FFF8
:1001B00081912F01853229F490E0B3010E94A302BE
:1001C000E7CF982FFF24EE249924FFE1FF15D0F00C
:1001D0009B3269F09C3228F4903259F0933291F4BA
:1001E0000EC09D3249F0903369F441E024C052E0E2
:1001F000F52A84E0F82A28C098E0F92A25C0E0E131
:10020000FE2A22C0F7FC29C0892F80538A3070F45F
:10021000F6FE05C0989C902C1124980E15C0E89C01
:10022000E02C1124E80EF0E2FF2A0EC09E3229F4E1
:10023000F6FC6BC140E4F42A07C09C3619F450E880
:10024000F52A02C0983649F4F20123FD959123FF67
:1002500091912F01992309F0B8CF892F85548330CC
:1002600018F08052833038F444E050E0A40EB51EFC
:100270005FE359830FC0933631F0933779F09335AC
:1002800009F056C020C0F5018081898342E050E02A
:10029000A40EB51E610101E010E012C0F501C0809E
:1002A000D180F6FC03C06FEF7FEF02C0692D70E0D4
:1002B00042E050E0A40EB51EC6010E9498028C01D7
:1002C0005FE7F52214C0F501C080D180F6FC03C0C1
:1002D0006FEF7FEF02C0692D70E042E050E0A40EA6
:1002E000B51EC6010E948D028C0150E8F52AF3FE6E
:1002F00007C01AC080E290E0B3010E94A302EA9412
:100300008E2D90E008171907A8F30EC0F601F7FC30
:100310008591F7FE81916F0190E0B3010E94A302E5
:10032000E110EA94015010400115110579F7EAC077
:10033000943611F0993669F5F7FE08C0F501208171
:1003400031814281538184E090E00AC0F5018081CF
:1003500091819C01442737FD4095542F82E090E025
:10036000A80EB91E9FE6F92257FF09C05095409587
:10037000309521953F4F4F4F5F4FE0E8FE2ACA016D
:10038000B901A1012AE030E00E94CF02D82ED21894
:1003900040C0953729F41F2D1F7E2AE030E01DC094
:1003A0001F2D197F9F3661F0903720F4983509F0A2
:1003B000ACC00FC0903739F0983709F0A6C004C020
:1003C00028E030E00AC0106114FD146020E130E044
:1003D00004C014FD166020E132E017FF08C0F501EB
:1003E000608171818281938144E050E008C0F50111
:1003F00080819181BC0180E090E042E050E0A40E59
:10040000B51EA1010E94CF02D82ED2188FE7F82E78
:10041000F122F6FE0BC05EEFF522D91438F4F4FE9B
:1004200007C0F2FC05C08FEEF82202C01D2D01C0EE
:10043000192DF4FE0DC0FE01ED0DF11D80818033FC
:1004400019F499EEF92208C01F5FF2FE05C003C03F
:100450008F2D867809F01F5F0F2DF3FC14C0F0FE7E
:100460000FC01E1510F09D2C0BC09D2C9E0C911AD8
:100470001E2D06C080E290E0B3010E94A3021F5F20
:100480001E15C0F304C01E1510F4E11A01C0EE24BD
:1004900004FF0FC080E390E0B3010E94A30202FFBB
:1004A0001DC001FD03C088E790E00EC088E590E024
:1004B0000BC0802F867891F001FF02C08BE201C053
:1004C00080E2F7FC8DE290E0B3010E94A30206C037
:1004D00080E390E0B3010E94A3029A94D914C0F380
:1004E000DA94F101ED0DF11D808190E0B3010E94DD
:1004F000A302DD20A9F706C080E290E0B3010E94CC
:10050000A302EA94EE20C1F743CEF301668177811E
:10051000CB012B96E2E10C94C60AFC0105906150D8
:1005200070400110D8F7809590958E0F9F1F089509
:10053000FC016150704001900110D8F780959095B2
:100540008E0F9F1F08950F931F93CF93DF938C01FE
:10055000EB018B8181FF1BC082FF0DC02E813F818B
:100560008C819D812817390764F4E881F981019312
:10057000F983E88306C0E885F985802F0995892BE2
:1005800031F48E819F8101969F838E8302C00FEF8D
:100590001FEFC801DF91CF911F910F910895FA01CC
:1005A000AA27283051F1203181F1E8946F936E7FB2
:1005B0006E5F7F4F8F4F9F4FAF4FB1E03ED0B4E0A3
:1005C0003CD0670F781F891F9A1FA11D680F791FE4
:1005D0008A1F911DA11D6A0F711D811D911DA11DF5
:1005E00020D009F468943F912AE0269F1124301905
:1005F000305D3193DEF6CF010895462F4770405DA0
:100600004193B3E00FD0C9F7F6CF462F4F70405D4E
:100610004A3318F0495D31FD4052419302D0A9F7A9
:10062000EACFB4E0A6959795879577956795BA95A3
:10063000C9F700976105710508959B01AC010A2E69
:1006400006945795479537952795BA95C9F7620F40
:10065000731F841F951FA01D08951F93CF93DF93D1
:10066000182FC0E0D0E017FF03C087E061E002C0B0
:1006700087E060E00E94560688E060E00E9456062F
:1006800088E061E00E9456062196C830D10511F03D
:10069000110FE9CF86E060E00E94560686E061E037
:1006A0000E945606DF91CF911F91089580912001FD
:1006B0009091210182309105F1F08330910524F46D
:1006C000019709F04DC007C08330910521F10497CF
:1006D00009F046C033C082E061E00E945606E09116
:1006E0002201FF27E7FDF095EB5FFE4F80810E941E
:1006F0002D0385E01FC085E061E00E945606E09171
:100700002301FF27E7FDF095EB5FFE4F80810E94FC
:100710002D0384E00FC084E061E00E945606E09162
:100720002401FF27E7FDF095EB5FFE4F80810E94DB
:100730002D0383E060E00E945606089583E061E0A7
:100740000E945606E0912501FF27E7FDF095EB5F3B
:10075000FE4F80810E942D0382E060E00E945606D9
:10076000089580912001909121010196909321019B
:1007700080932001059731F481E090E0909321016E
:10078000809320010E9456038CEC86BD0895DF9370
:10079000CF9300D000D0CDB7DEB789E00E94AA0683
:1007A000892B89F489E00E94AA06892BD9F38091CC
:1007B000260190912701181619062CF401979093A1
:1007C0002701809326018AE00E94AA06892B91F4D2
:1007D0008AE00E94AA06892BD9F380912601909184
:1007E000270127E2803192072CF40196909327018C
:1007F0008093260100D000D000D0EDB7FEB731962F
:10080000CE010196ADB7BEB712969C938E93119709
:1008100080E091E09383828380912601909127016B
:10082000958384830E948C008DB79EB706960FB681
:10083000F8949EBF0FBE8DBF609126017091270175
:100840008FEB91E04AE050E00E941D0A89818F7091
:10085000809322018A818F70809323018B818F7016
:10086000809324018C818F708093250162E370E076
:1008700080E090E00E949C050F900F900F900F90E9
:10088000CF91DF9108950F931F938FEB91E040E894
:1008900055E260E070E00E948E0787E061E00E9410
:1008A000300688E061E00E94300686E061E00E9448
:1008B000300685E061E00E94300684E061E00E943D
:1008C000300683E061E00E94300682E061E00E9431
:1008D00030068AE060E00E94300689E060E00E9415
:1008E00030068AE061E00E94560689E061E00E94DD
:1008F0005606109221011092200108E211E0C80171
:1009000040E553EC60E070E00E942D05C80161EB0A
:1009100073E02FEF3FEF4FEF5FEF0E9435051F9120
:100920000F9108951F920F920FB60F9211242F93DB
:100930003F934F935F936F937F938F939F93AF9367
:10094000BF93EF93FF93E0912C01F0912D01099556
:10095000FF91EF91BF91AF919F918F917F916F9197
:100960005F914F913F912F910F900FBE0F901F906D
:100970001895FC01A3E0440F551F661F771FAA9529
:10098000D1F7403080E0580781E0680780E07807C1
:1009900014F481E010C033E075956795579547953D
:1009A0003A95D1F7403080E0580781E0680780E051
:1009B00078071CF482E0828339C023E0759567953F
:1009C000579547952A95D1F7403080E0580781E048
:1009D000680780E0780714F483E0EDCF92E0759526
:1009E0006795579547959A95D1F7403080E058071D
:1009F00081E0680780E0780714F484E0DCCF82E0CF
:100A000075956795579547958A95D1F7403080E061
:100A1000580781E0680780E0780714F485E0CBCFC1
:100A200085E082834FEF5FEF60E070E08FB78383F4
:100A3000F8945183408350938700409386008381CC
:100A40008FBF80918100887F809381008091810099
:100A50009281892B8093810008951092800020E17B
:100A6000209381000E94B90408950F931F93CF93A0
:100A7000DF93EC018B01121613061406150624F4FD
:100A8000BA01A9010E94B9041D830C8381E08093FF
:100A90006F00809181009A81892B80938100DF9182
:100AA000CF911F910F9108951F920F920FB60F9241
:100AB00011242F933F938F939F93AF93BF93809174
:100AC000320190913301A0913401B0913501309100
:100AD00036010196A11DB11D232F2D5F2D3720F06A
:100AE0002D570196A11DB11D20933601809332012F
:100AF00090933301A0933401B093350180912E017E
:100B000090912F01A0913001B09131010196A11D6A
:100B1000B11D80932E0190932F01A0933001B093CB
:100B20003101BF91AF919F918F913F912F910F9084
:100B30000FBE0F901F9018959B01AC017FB7F894E2
:100B400080912E0190912F01A0913001B09131013F
:100B500066B5A89B05C06F3F19F00196A11DB11D98
:100B60007FBFBA2FA92F982F8827860F911DA11D0F
:100B7000B11D62E0880F991FAA1FBB1F6A95D1F7AC
:100B8000BC012DC0FFB7F89480912E0190912F01E8
:100B9000A0913001B0913101E6B5A89B05C0EF3FAF
:100BA00019F00196A11DB11DFFBFBA2FA92F982FD3
:100BB00088278E0F911DA11DB11DE2E0880F991F9E
:100BC000AA1FBB1FEA95D1F7861B970B885E93403F
:100BD000C8F2215030404040504068517C4F2115B0
:100BE00031054105510571F60895789484B5826008
:100BF00084BD84B5816084BD85B5826085BD85B5C1
:100C0000816085BDEEE6F0E0808181608083E1E86F
:100C1000F0E01082808182608083808181608083A7
:100C2000E0E8F0E0808181608083E1EBF0E08081AA
:100C300084608083E0EBF0E0808181608083EAE77C
:100C4000F0E0808184608083808182608083808105
:100C5000816080838081806880831092C1000895C4
:100C6000482F50E0CA0186569F4FFC0124914A57F5
:100C70005F4FFA0184918823C1F0E82FF0E0EE0F76
:100C8000FF1FE859FF4FA591B491662341F49FB728
:100C9000F8948C91209582238C939FBF08959FB7E1
:100CA000F8948C91822B8C939FBF0895482F50E02D
:100CB000CA0182559F4FFC012491CA0186569F4F5D
:100CC000FC0194914A575F4FFA013491332309F4A0
:100CD00040C0222351F1233071F0243028F4213018
:100CE000A1F0223011F514C02630B1F02730C1F048
:100CF0002430D9F404C0809180008F7703C08091A4
:100D000080008F7D8093800010C084B58F7702C0F3
:100D100084B58F7D84BD09C08091B0008F7703C0FA
:100D20008091B0008F7D8093B000E32FF0E0EE0F54
:100D3000FF1FEE58FF4FA591B4912FB7F89466238B
:100D400021F48C919095892302C08C91892B8C93EE
:100D50002FBF0895682F70E0CB0182559F4FFC0193
:100D60002491CB0186569F4FFC0144916A577F4FD7
:100D7000FB019491992319F420E030E03CC0222338
:100D800051F1233071F0243028F42130A1F02230C9
:100D900011F514C02630B1F02730C1F02430D9F459
:100DA00004C0809180008F7703C0809180008F7D88
:100DB0008093800010C084B58F7702C084B58F7D8A
:100DC00084BD09C08091B0008F7703C08091B000CE
:100DD0008F7D8093B000892F90E0880F991F8458F1
:100DE0009F4FFC01A591B4918C9120E030E08423C9
:100DF00011F021E030E0C901089508951F920F928B
:100E00000FB60F9211242F933F934F938F939F937D
:100E1000EF93FF934091C6002091770130917801C4
:100E20002F5F3F4F2F7330708091790190917A013D
:100E30002817390759F0E0917701F0917801E95CC2
:100E4000FE4F40833093780120937701FF91EF911B
:100E50009F918F914F913F912F910F900FBE0F90C7
:100E60001F901895E091CB01F091CC01E05CFF4F11
:100E70008191919120813181821B930B8F739070AE
:100E8000892B11F00E94FD0608951F920F920FB654
:100E90000F9211242F933F934F935F936F937F9300
:100EA0008F939F93AF93BF93EF93FF932091BB01D9
:100EB0003091BC018091BD019091BE012817390786
:100EC00031F48091C1008F7D8093C10016C0E09104
:100ED000BD01F091BE01E558FE4F40818091BD01FA
:100EE0009091BE01019660E470E00E945B0A9093CD
:100EF000BE018093BD014093C600FF91EF91BF9169
:100F0000AF919F918F917F916F915F914F913F91A1
:100F10002F910F900FBE0F901F901895AF92BF9218
:100F2000DF92EF92FF920F931F93CF93DF93EC0129
:100F30007A018B01DD24403081EE580780E068079C
:100F400080E0780711F0DD24D39491E0A92EB12C34
:100F5000EC89FD89DD2069F0C5010E8C02C0880F87
:100F6000991F0A94E2F7808360E079E08DE390E0D6
:100F700005C0108260E874E88EE190E0A801970156
:100F80000E946E0A2150304040405040569547958F
:100F90003795279580E12030380720F0DD2011F0CB
:100FA000DD24D6CFE889F9893083EA89FB8920835B
:100FB000EE89FF89408121E030E0C9010A8C02C03E
:100FC000880F991F0A94E2F7482B4083EE89FF8926
:100FD0004081C9010B8C02C0880F991F0A94E2F767
:100FE000482B4083EE89FF894081C9010C8C02C0E7
:100FF000880F991F0A94E2F7482B4083EE89FF89F6
:1010000080810D8C02C0220F331F0A94E2F72095D5
:1010100028232083DF91CF911F910F91FF90EF90B4
:10102000DF90BF90AF900895DC011C96ED91FC918C
:101030001D97E05CFF4F2191319180819181281BA8
:10104000390B2F733070C9010895DC011C96ED91A6
:10105000FC911D97E05CFF4F20813181E054F0400E
:10106000DF01AE5BBF4F8D919C9111972817390717
:1010700019F42FEF3FEF07C08D919C91E80FF91FF6
:101080008081282F30E0C9010895DC011C96ED9184
:10109000FC911D97E05CFF4F20813181E054F040CE
:1010A000DF01AE5BBF4F8D919C91119728173907D7
:1010B00019F42FEF3FEF10C08D919C911197E80F1D
:1010C000F91F20818D919C91119701968F739070DB
:1010D00011969C938E9330E0C9010895FC0186859A
:1010E0009785DC01A05CBF4FFC01EE5BFF4F2D91AB
:1010F0003C9111978081918128173907C1F7089594
:10110000CF93DF93EC01462FEE85FF85E05CFF4F28
:1011100080819181E054F040019660E470E00E948B
:101120005B0A9C01DF01AE5BBF4F8D919C911197D3
:1011300028173907D1F3E05CFF4F80819181E0549B
:10114000F040E80FF91F4083EE85FF85E05CFF4F1C
:1011500031832083EE89FF89208181E090E00D8C2E
:1011600002C0880F991F0A94E2F7282B208381E0A0
:1011700090E0DF91CF9108951092C2011092C101C9
:1011800088EE93E0A0E0B0E08093C3019093C401A7
:10119000A093C501B093C60183E191E09093C00193
:1011A0008093BF0187E391E09093CC018093CB01C2
:1011B0008BE791E09093CE018093CD0185EC90E098
:1011C0009093D0018093CF0184EC90E09093D20172
:1011D0008093D10180EC90E09093D4018093D3016F
:1011E00081EC90E09093D6018093D50186EC90E05D
:1011F0009093D8018093D70184E08093D90183E054
:101200008093DA0187E08093DB0185E08093DC0145
:1012100081E08093DD010895CF93DF930E94F5056F
:101220000E944304C2E3D7E00E94C7032097E1F382
:101230000E943207F9CFCF92DF92EF92FF920F9385
:101240001F93CF93DF937C016B018A01C0E0D0E054
:101250000FC0D6016D916D01D701ED91FC91019008
:10126000F081E02DC7010995C80FD91F015010402A
:101270000115110571F7CE01DF91CF911F910F91EB
:10128000FF90EF90DF90CF900895EF92FF920F9331
:101290001F938C01DC01ED91FC910190F081E02D18
:1012A0006DE009957C01D801ED91FC910190F081F0
:1012B000E02DC8016AE009959C012E0D3F1DC90172
:1012C0001F910F91FF90EF900895CF93DF93DB0173
:1012D0000D900020E9F71197A61BB70BEC01E881F0
:1012E000F9810280F381E02DAD010995DF91CF9165
:1012F00008954F925F927F928F929F92AF92BF928A
:10130000CF92DF92EF92FF920F931F93DF93CF93D1
:10131000CDB7DEB7A1970FB6F894DEBF0FBECDBF35
:101320002C01742ECB01223008F42AE019A231E2FC
:10133000C32ED12CCC0EDD1E822E9924AA24BB24D0
:10134000672D752FA50194010E946E0A79018A010B
:10135000C801B701A50194010E943C0A472D461B14
:101360000894C108D1084A3014F4405D01C0495CBA
:10137000F6014083E114F1040105110521F07E2CF2
:101380005F2DC801DDCFC201B6010E946509A1969B
:101390000FB6F894DEBF0FBECDBFCF91DF911F9186
:1013A0000F91FF90EF90DF90CF90BF90AF909F9004
:1013B0008F907F905F904F900895CF92DF92EF9241
:1013C000FF920F931F93CF93DF93EC016A017B0190
:1013D0002115310541F4E881F9810190F081E02D7A
:1013E000642F09951FC02A303105D1F477FF17C04B
:1013F000E881F9810190F081E02D6DE209958C0181
:1014000044275527BA014C195D096E097F09CE01A1
:101410002AE00E9479099801280F391F04C02AE0A8
:101420000E9479099C01C901DF91CF911F910F9111
:10143000FF90EF90DF90CF900895CF92DF92EF92E0
:10144000FF920F931F936C017B019A010027F7FC19
:101450000095102FB801A7010E94DD098C01C6017B
:101460000E944509080F191FC8011F910F91FF9095
:10147000EF90DF90CF900895629FD001739FF001AD
:10148000829FE00DF11D649FE00DF11D929FF00D14
:10149000839FF00D749FF00D659FF00D9927729F4B
:1014A000B00DE11DF91F639FB00DE11DF91FBD01D6
:1014B000CF011124089597FB092E07260AD077FD46
:1014C00004D02ED006D000201AF4709561957F4F7D
:1014D0000895F6F7909581959F4F0895A1E21A2EF1
:1014E000AA1BBB1BFD010DC0AA1FBB1FEE1FFF1FC8
:1014F000A217B307E407F50720F0A21BB30BE40B18
:10150000F50B661F771F881F991F1A9469F760955E
:101510007095809590959B01AC01BD01CF01089518
:10152000AA1BBB1B51E107C0AA1FBB1FA617B70709
:1015300010F0A61BB70B881F991F5A95A9F7809525
:101540009095BC01CD010895EE0FFF1F0590F49119
:10155000E02D09942F923F924F925F926F927F926B
:101560008F929F92AF92BF92CF92DF92EF92FF92B3
:101570000F931F93CF93DF93CDB7DEB7CA1BDB0B5F
:101580000FB6F894DEBF0FBECDBF09942A88398804
:1015900048885F846E847D848C849B84AA84B9840B
:1015A000C884DF80EE80FD800C811B81AA81B98117
:1015B000CE0FD11D0FB6F894DEBF0FBECDBFED012B
:0615C0000895F894FFCF2E
:1015C60025303464003F065B4F666D7D077F6F00F4
:1015D60000000080081B091408450825086E08004D
:00000001FF
