:100000000C9462000C948A000C948A000C948A0070
:100010000C948A000C948A000C948A000C948A0038
:100020000C948A000C948A000C948A000C948A0028
:100030000C948A000C948A000C948A000C948A0018
:100040000C947B030C948A000C948A000C948A0014
:100050000C948A000C948A000C948A000C948A00F8
:100060000C948A000C948A000000000024002700F1
:100070002A0000000000250028002B0000000000DE
:1000800023002600290004040404040404040202DA
:100090000202020203030303030301020408102007
:1000A0004080010204081020010204081020000012
:1000B0000007000201000003040600000000000029
:1000C00000008C0011241FBECFEFD8E0DEBFCDBFF3
:1000D00011E0A0E0B1E0E0EDF2E102C005900D9288
:1000E000A435B107D9F711E0A4E5B1E001C01D9234
:1000F000A237B107E1F710E0C4ECD0E004C02297CA
:10010000FE010E946209C23CD107C9F70E94500556
:100110000C9466090C940000CF92EF920F9384E543
:1001200091E069E048E027E006E055E0E52E34E0A4
:10013000C32E0E9442030F91EF90CF900895EF924B
:10014000FF920F931F938EE00E946104AA2797FDF0
:10015000A095BA2FBC01CD010E94080820E030E034
:1001600040EA5BE30E94BC0820E030E048EC52E447
:100170000E94BC087B018C0184E591E060E040E0D6
:100180000E94550284E591E060E071E00E94630600
:1001900084E591E0B801A70122E030E00E94010768
:1001A00082E00E94FD04892B61F4809141019091CD
:1001B0004201181619062CF401979093420180937E
:1001C000410183E00E94FD04892B61F4809141018B
:1001D00090914201863991052CF401969093420149
:1001E0008093410184E591E060E041E00E94550286
:1001F00084E591E06DE071E00E9463066091410149
:100200007091420184E591E04AE050E00E9450067E
:1002100084E591E068E171E00E946306609141012C
:1002200070914201882777FD8095982F0E940808D9
:100230009B01AC01C801B7010E94B808181654F41C
:100240008CE060E00E94A9048AE060E00E94A904BA
:100250008BE009C08CE061E00E94A9048BE060E0C3
:100260000E94A9048AE061E00E94A90464E670E0AB
:1002700080E090E00E94C3031F910F91FF90EF90E8
:1002800008950F931F938AE061E00E9483048BE03E
:1002900061E00E9483048CE061E00E94830483E0BB
:1002A00060E00E94830482E060E00E94830483E0B7
:1002B00061E00E94A90482E061E00E94A90404E5D3
:1002C00011E0C80160E142E020E00E948C02C80118
:1002D0006DE171E00E946306C80160E041E00E94A8
:1002E0005502C8016EE271E00E9463068BE061E096
:1002F0000E94A9048AE060E00E94A9048CE060E00A
:100300000E94A90460ED77E080E090E00E94C303C2
:100310001F910F9108950F931F938C01FC0186810B
:1003200060E00E94A90481E090E00E941C04F801B2
:10033000868161E00E94A90481E090E00E941C0493
:10034000F801868160E00E94A90484E690E00E94A2
:100350001C041F910F910895CF92DF92EF92FF92AC
:100360000F931F93CF93DF93D82EC92E282F392FA9
:10037000C9018C01C0E0D0E0E62EFF24F80187819E
:1003800061E00E948304B7010C2E02C07595679549
:100390000A94E2F76170F80187810E94A90421960E
:1003A0000F5F1F4FC830D10549F78D2D9C2D0E943E
:1003B0008B01DF91CF911F910F91FF90EF90DF9014
:1003C000CF900895CF92DF92EF92FF920F931F93F9
:1003D000CF93DF93D82EC92E282F392FC9018C0136
:1003E000C0E0D0E0E62EFF24F801878161E00E94A2
:1003F0008304B7010C2E02C0759567950A94E2F745
:100400006170F80187810E94A90421960F5F1F4F38
:10041000C430D10549F78D2D9C2D0E948B01DF91B1
:10042000CF911F910F91FF90EF90DF90CF900895A3
:100430001F93CF93DF93EC01162F8C81642F0E94C2
:10044000A9048D818F3F19F060E00E94A9048F8577
:1004500084FF05C0CE01612F0E94AC010EC0612F48
:1004600070E084E0759567958A95E1F7CE010E946A
:10047000E201CE01612F0E94E201DF91CF911F9135
:10048000089541E00E94180281E090E0089540E064
:100490000E9418020895FC016089862F8460808B79
:1004A0006C60CF010E9447020895DF93CF93CDB7D0
:1004B000DEB728970FB6F894DEBF0FBECDBF9C0104
:1004C000FE013196ACE4B1E088E00D9001928150DC
:1004D000E1F7F9018389481710F0482F4150E42FC4
:1004E000F0E0EE0FFF1FEC0FFD1F8181680F6068C9
:1004F000C9010E94470228960FB6F894DEBF0FBECE
:10050000CDBFCF91DF91089561E00E94470280ED59
:1005100097E00E941C040895CF93DF93EC014230D2
:1005200018F08F8588608F874B8B1C8A222329F0D7
:10053000413019F48F8584608F8780E593EC0E94A9
:100540001C048C8160E00E94A9048E8160E00E94FE
:10055000A9048D818F3F19F060E00E94A9046F8586
:1005600064FD1DC0CE0163E00E94E20184E991E1D7
:100570000E941C04CE0163E00E94E20184E991E143
:100580000E941C04CE0163E00E94E20186E990E033
:100590000E941C04CE0162E00E94E20116C060626B
:1005A000CE010E94470284E991E10E941C046F85FC
:1005B0006062CE010E94470286E990E00E941C041E
:1005C0006F856062CE010E9447026F856062CE0136
:1005D0000E94470284E0888BCE010E944B02CE012C
:1005E0000E94840282E0898BCE0166E00E9447026D
:1005F000DF91CF9108956F927F928F92AF92CF92B9
:10060000EF920F931F93DF93CF93CDB7DEB73C01EB
:10061000162F842FF301448325830683E782C08647
:10062000A18682869D8593879E8594879F859587E1
:100630009889968761E00E948304F30185818F3F4A
:1006400019F061E00E948304F301868161E00E9459
:100650008304112319F0F301178603C080E1F3012D
:100660008787C30160E141E020E00E948C02CF91C6
:10067000DF911F910F91EF90CF90AF908F907F906F
:100680006F9008958F92AF92CF92EF920F931F9336
:10069000CF93DF93DC01362F542F722F102FAE2C07
:1006A0008C2C13961C921E92129788E491E011965E
:1006B0009C938E9300D000D0EDB7FEB73196CDB7A6
:1006C000DEB71982118212821382CD0161E0432FBD
:1006D0002FEF052FE72EC12E0E94FB020F900F90E7
:1006E0000F900F90DF91CF911F910F91EF90CF90CE
:1006F000AF908F9008951F920F920FB60F92112412
:100700002F933F938F939F93AF93BF9380916D01EE
:1007100090916E01A0916F01B091700130917101C3
:100720000196A11DB11D232F2D5F2D3720F02D57D0
:100730000196A11DB11D2093710180936D019093CD
:100740006E01A0936F01B093700180916901909147
:100750006A01A0916B01B0916C010196A11DB11DC0
:100760008093690190936A01A0936B01B0936C012F
:10077000BF91AF919F918F913F912F910F900FBE9D
:100780000F901F9018959B01AC017FB7F894809152
:10079000690190916A01A0916B01B0916C0166B5FD
:1007A000A89B05C06F3F19F00196A11DB11D7FBF29
:1007B000BA2FA92F982F8827860F911DA11DB11D33
:1007C00062E0880F991FAA1FBB1F6A95D1F7BC0171
:1007D0002DC0FFB7F8948091690190916A01A091B2
:1007E0006B01B0916C01E6B5A89B05C0EF3F19F015
:1007F0000196A11DB11DFFBFBA2FA92F982F8827E1
:100800008E0F911DA11DB11DE2E0880F991FAA1F37
:10081000BB1FEA95D1F7861B970B885E9340C8F201
:10082000215030404040504068517C4F21153105E7
:100830004105510571F60895019739F0880F991F08
:10084000880F991F02970197F1F70895789484B55E
:10085000826084BD84B5816084BD85B5826085BDBC
:1008600085B5816085BDEEE6F0E0808181608083A2
:10087000E1E8F0E010828081826080838081816085
:100880008083E0E8F0E0808181608083E1EBF0E04C
:10089000808184608083E0EBF0E0808181608083F0
:1008A000EAE7F0E0808184608083808182608083D9
:1008B0008081816080838081806880831092C10004
:1008C0000895982F8E3008F09E50977080914301C4
:1008D0008295880F880F807C892B80937C00809183
:1008E0007A00806480937A0080917A0086FDFCCF44
:1008F0002091780040917900942F80E030E0282BFF
:10090000392BC9010895482F50E0CA0186569F4FE0
:10091000FC0124914A575F4FFA0184918823C1F06A
:10092000E82FF0E0EE0FFF1FE859FF4FA591B491BB
:10093000662341F49FB7F8948C91209582238C9381
:100940009FBF08959FB7F8948C91822B8C939FBF83
:100950000895482F50E0CA0182559F4FFC01249111
:10096000CA0186569F4FFC0194914A575F4FFA0186
:100970003491332309F440C0222351F1233071F024
:10098000243028F42130A1F0223011F514C0263093
:10099000B1F02730C1F02430D9F404C08091800038
:1009A0008F7703C0809180008F7D8093800010C07E
:1009B00084B58F7702C084B58F7D84BD09C08091D6
:1009C000B0008F7703C08091B0008F7D8093B0001E
:1009D000E32FF0E0EE0FFF1FEE58FF4FA591B4910B
:1009E0002FB7F894662321F48C919095892302C047
:1009F0008C91892B8C932FBF0895682F70E0CB01C9
:100A000082559F4FFC012491CB0186569F4FFC01DC
:100A100044916A577F4FFB019491992319F420E088
:100A200030E03CC0222351F1233071F0243028F40F
:100A30002130A1F0223011F514C02630B1F027305A
:100A4000C1F02430D9F404C0809180008F7703C0B6
:100A5000809180008F7D8093800010C084B58F7757
:100A600002C084B58F7D84BD09C08091B0008F77AE
:100A700003C08091B0008F7D8093B000892F90E0FB
:100A8000880F991F84589F4FFC01A591B4918C91B8
:100A900020E030E0842311F021E030E0C901089526
:100AA000CF93DF930E9426040E944101C0E0D0E072
:100AB0000E949F002097E1F30E940000F9CFCF929F
:100AC000DF92EF92FF920F931F93CF93DF937C01FE
:100AD0006B018A01C0E0D0E00FC0D6016D916D01BD
:100AE000D701ED91FC910190F081E02DC7010995AE
:100AF000C80FD91F015010400115110571F7CE0123
:100B0000DF91CF911F910F91FF90EF90DF90CF90E9
:100B10000895CF93DF93DB010D900020E9F7119743
:100B2000A61BB70BEC01E881F9810280F381E02D6F
:100B3000AD010995DF91CF9108954F925F927F9219
:100B40008F929F92AF92BF92CF92DF92EF92FF92DD
:100B50000F931F93DF93CF93CDB7DEB7A1970FB657
:100B6000F894DEBF0FBECDBF2C01742ECB01223016
:100B700008F42AE019A231E2C32ED12CCC0EDD1EDE
:100B8000822E9924AA24BB24672D752FA5019401D8
:100B90000E943E0979018A01C801B701A5019401AB
:100BA0000E941F09472D461B0894C108D1084A30EE
:100BB00014F4405D01C0495CF6014083E114F10486
:100BC0000105110521F07E2C5F2DC801DDCFC2018A
:100BD000B6010E948905A1960FB6F894DEBF0FBE3C
:100BE000CDBFCF91DF911F910F91FF90EF90DF90DC
:100BF000CF90BF90AF909F908F907F905F904F90DD
:100C00000895DC012115310541F4ED91FC9101902D
:100C1000F081E02D642F099508950E949D050895A7
:100C2000CF92DF92EF92FF920F931F93CF93DF93B8
:100C3000EC016A017B012115310541F4E881F9815C
:100C40000190F081E02D642F09951FC02A303105F5
:100C5000D1F477FF17C0E881F9810190F081E02D90
:100C60006DE209958C0144275527BA014C195D099D
:100C70006E097F09CE012AE00E949D059801280F88
:100C8000391F04C02AE00E949D059C01C901DF9123
:100C9000CF911F910F91FF90EF90DF90CF9008952B
:100CA000EF92FF920F931F937B019A010027F7FCAD
:100CB0000095102FB801A7010E9410061F910F91F7
:100CC000FF90EF9008950E94890508957F928F927A
:100CD0009F92AF92BF92CF92DF92EF92FF920F93CB
:100CE0001F93CF93DF934C017A018B01722ECB01BE
:100CF000BA0120E030E040E050E00E94690787FD43
:100D000003C0C0E0D0E00EC0D401ED91FC91019091
:100D1000F081E02DC4016DE20995EC0117FB1095FF
:100D200017F9109520E030E040E05FE3AA240BC003
:100D3000CA01B90120E030E040E251E40E946D07B1
:100D40009B01AC01A394A71498F3C801B7010E94BA
:100D500005075B016C010E94DA077B018C01C4016D
:100D6000B801A7012AE030E00E940106C80FD91F90
:100D7000772039F0C4016FE371E00E948905C80F44
:100D8000D91FC801B7010E9406089B01AC01C6012A
:100D9000B5010E94040724C020E030E040E251E4A5
:100DA0000E94BC087B018C010E94D5075B016C018D
:100DB000CC24B7FCC094DC2CC401B601A5012AE008
:100DC00030E00E941006C80FD91FC601B5010E946D
:100DD00008089B01AC01C801B7010E9404077A947E
:100DE0007720D1F6CE01DF91CF911F910F91FF9027
:100DF000EF90DF90CF90BF90AF909F908F907F90BB
:100E000008950E94660608955058BB27AA270ED061
:100E100075C166D130F06BD120F031F49F3F11F4F1
:100E20001EF45BC10EF4E095E7FB51C1E92F77D1C9
:100E300080F3BA17620773078407950718F071F4F7
:100E40009EF58FC10EF4E0950B2EBA2FA02D0B014D
:100E5000B90190010C01CA01A0011124FF27591BFF
:100E600099F0593F50F4503E68F11A16F040A22F05
:100E7000232F342F4427585FF3CF46953795279576
:100E8000A795F0405395C9F77EF41F16BA0B620B75
:100E9000730B840BBAF09150A1F0FF0FBB1F661FBC
:100EA000771F881FC2F70EC0BA0F621F731F841FFF
:100EB00048F4879577956795B795F7959E3F08F025
:100EC000B3CF9395880F08F09927EE0F97958795E4
:100ED0000895D9D008F481E008950CD00FC107D14E
:100EE00040F0FED030F021F45F3F19F0F0C0511116
:100EF00039C1F3C014D198F39923C9F35523B1F341
:100F0000951B550BBB27AA2762177307840738F078
:100F10009F5F5F4F220F331F441FAA1FA9F333D0D7
:100F20000E2E3AF0E0E830D091505040E695001C8B
:100F3000CAF729D0FE2F27D0660F771F881FBB1F47
:100F4000261737074807AB07B0E809F0BB0B802D21
:100F5000BF01FF2793585F4F2AF09E3F510568F06D
:100F6000B6C000C15F3FECF3983EDCF38695779501
:100F70006795B795F7959F5FC9F7880F911D96956F
:100F8000879597F90895E1E0660F771F881FBB1FCB
:100F9000621773078407BA0720F0621B730B840B78
:100FA000BA0BEE1F88F7E095089504D06894B1114C
:100FB000D9C00895BCD088F09F5790F0B92F9927D9
:100FC000B751A0F0D1F0660F771F881F991F1AF054
:100FD000BA95C9F712C0B13081F0C3D0B1E008951D
:100FE000C0C0672F782F8827B85F39F0B93FCCF39E
:100FF000869577956795B395D9F73EF4909580954A
:10100000709561957F4F8F4F9F4F0895E89409C069
:1010100097FB3EF490958095709561957F4F8F4F2B
:101020009F4F9923A9F0F92F96E9BB279395F69541
:10103000879577956795B795F111F8CFFAF4BB0FBF
:1010400011F460FF1BC06F5F7F4F8F4F9F4F16C023
:10105000882311F096E911C0772321F09EE8872FAD
:10106000762F05C0662371F096E8862F70E060E069
:101070002AF09A95660F771F881FDAF7880F9695E2
:10108000879597F90895990F0008550FAA0BE0E886
:10109000FEEF16161706E807F907C0F0121613063A
:1010A000E407F50798F0621B730B840B950B39F47A
:1010B0000A2661F0232B242B252B21F408950A26E0
:1010C00009F4A140A6958FEF811D811D089597F920
:1010D0009F6780E870E060E008959FEF80EC0895DE
:1010E00000240A9416161706180609060895002407
:1010F0000A9412161306140605060895092E039481
:10110000000C11F4882352F0BB0F40F4BF2B11F4F4
:1011100060FF04C06F5F7F4F8F4F9F4F089557FD53
:101120009058440F551F59F05F3F71F04795880F55
:1011300097FB991F61F09F3F79F0879508951216EC
:1011400013061406551FF2CF4695F1DF08C0161698
:1011500017061806991FF1CF869571056105089449
:101160000895E894BB2766277727CB0197F9089560
:101170008ADF08F48FEF08950BD0C0CFB1DF28F0DD
:10118000B6DF18F0952309F0A2CFA7CF1124EACF3C
:10119000C6DFA0F3959FD1F3950F50E0551F629FD6
:1011A000F001729FBB27F00DB11D639FAA27F00DC0
:1011B000B11DAA1F649F6627B00DA11D661F829FE7
:1011C0002227B00DA11D621F739FB00DA11D621FCC
:1011D000839FA00D611D221F749F3327A00D611DE9
:1011E000231F849F600D211D822F762F6A2F1124CB
:1011F0009F5750408AF0E1F088234AF0EE0FFF1F1E
:10120000BB1F661F771F881F91505040A9F79E3F54
:10121000510570F05CCFA6CF5F3FECF3983EDCF356
:10122000869577956795B795F795E7959F5FC1F791
:10123000FE2B880F911D9695879597F90895629FCB
:10124000D001739FF001829FE00DF11D649FE00DBE
:10125000F11D929FF00D839FF00D749FF00D659F1F
:10126000F00D9927729FB00DE11DF91F639FB00D1E
:10127000E11DF91FBD01CF0111240895A1E21A2E2D
:10128000AA1BBB1BFD010DC0AA1FBB1FEE1FFF1F2A
:10129000A217B307E407F50720F0A21BB30BE40B7A
:1012A000F50B661F771F881F991F1A9469F76095C1
:1012B0007095809590959B01AC01BD01CF0108957B
:1012C000EE0FFF1F0590F491E02D0994F894FFCFE5
:1012D00054656D70657261747572653A005365741A
:1012E00020506F696E743A004320202000636972B9
:1012F000637569747334796F752E636F6D0054650F
:101300006D702E20436F6E74726F6C6C6572002E60
:10131000001E00010000000041025F0500004000C7
:041320001000500069
:00000001FF
