:100000000C9462000C948A000C948A000C948A0070
:100010000C948A000C948A000C948A000C948A0038
:100020000C948A000C948A000C948A000C948A0028
:100030000C948A000C946B040C948A000C948A0033
:100040000C942D050C948A000C94A6060C94ED06D5
:100050000C948A000C948A000C948A000C948A00F8
:100060000C948A000C948A000000000024002700F1
:100070002A0000000000250028002B0000000000DE
:1000800023002600290004040404040404040202DA
:100090000202020203030303030301020408102007
:1000A0004080010204081020010204081020000012
:1000B0000007000201000003040600000000000029
:1000C0000000640811241FBECFEFD8E0DEBFCDBF13
:1000D00011E0A0E0B1E0ECEBF5E102C005900D927B
:1000E000A032B107D9F711E0A0E2B1E001C01D9242
:1000F000AC3DB107E1F710E0C4ECD0E004C02297BA
:10010000FE010E94A10AC23CD107C9F70E94B408AF
:100110000C94DC0A0C940000AEE0B0E0E2E9F0E000
:100120000C94B30A0D891E8986E08C831A83098397
:100130008FEF9FE79E838D839E01275E3F4FCE0109
:1001400001966F89788DA9010E94B0002F813885B2
:10015000020F131FF80110822E96E4E00C94CF0AD0
:10016000ABE0B0E0E6EBF0E00C94A50A3C012B011B
:100170005A01FC0117821682838181FD03C06FEF53
:100180007FEFC6C19AE0892E1E010894211C311C04
:10019000F3012381F20123FD859123FF81912F013A
:1001A000882309F4B2C1853239F423FD859123FFF8
:1001B00081912F01853229F490E0B3010E94A302BE
:1001C000E7CF982FFF24EE249924FFE1FF15D0F00C
:1001D0009B3269F09C3228F4903259F0933291F4BA
:1001E0000EC09D3249F0903369F441E024C052E0E2
:1001F000F52A84E0F82A28C098E0F92A25C0E0E131
:10020000FE2A22C0F7FC29C0892F80538A3070F45F
:10021000F6FE05C0989C902C1124980E15C0E89C01
:10022000E02C1124E80EF0E2FF2A0EC09E3229F4E1
:10023000F6FC6BC140E4F42A07C09C3619F450E880
:10024000F52A02C0983649F4F20123FD959123FF67
:1002500091912F01992309F0B8CF892F85548330CC
:1002600018F08052833038F444E050E0A40EB51EFC
:100270005FE359830FC0933631F0933779F09335AC
:1002800009F056C020C0F5018081898342E050E02A
:10029000A40EB51E610101E010E012C0F501C0809E
:1002A000D180F6FC03C06FEF7FEF02C0692D70E0D4
:1002B00042E050E0A40EB51EC6010E9498028C01D7
:1002C0005FE7F52214C0F501C080D180F6FC03C0C1
:1002D0006FEF7FEF02C0692D70E042E050E0A40EA6
:1002E000B51EC6010E948D028C0150E8F52AF3FE6E
:1002F00007C01AC080E290E0B3010E94A302EA9412
:100300008E2D90E008171907A8F30EC0F601F7FC30
:100310008591F7FE81916F0190E0B3010E94A302E5
:10032000E110EA94015010400115110579F7EAC077
:10033000943611F0993669F5F7FE08C0F501208171
:1003400031814281538184E090E00AC0F5018081CF
:1003500091819C01442737FD4095542F82E090E025
:10036000A80EB91E9FE6F92257FF09C05095409587
:10037000309521953F4F4F4F5F4FE0E8FE2ACA016D
:10038000B901A1012AE030E00E94CF02D82ED21894
:1003900040C0953729F41F2D1F7E2AE030E01DC094
:1003A0001F2D197F9F3661F0903720F4983509F0A2
:1003B000ACC00FC0903739F0983709F0A6C004C020
:1003C00028E030E00AC0106114FD146020E130E044
:1003D00004C014FD166020E132E017FF08C0F501EB
:1003E000608171818281938144E050E008C0F50111
:1003F00080819181BC0180E090E042E050E0A40E59
:10040000B51EA1010E94CF02D82ED2188FE7F82E78
:10041000F122F6FE0BC05EEFF522D91438F4F4FE9B
:1004200007C0F2FC05C08FEEF82202C01D2D01C0EE
:10043000192DF4FE0DC0FE01ED0DF11D80818033FC
:1004400019F499EEF92208C01F5FF2FE05C003C03F
:100450008F2D867809F01F5F0F2DF3FC14C0F0FE7E
:100460000FC01E1510F09D2C0BC09D2C9E0C911AD8
:100470001E2D06C080E290E0B3010E94A3021F5F20
:100480001E15C0F304C01E1510F4E11A01C0EE24BD
:1004900004FF0FC080E390E0B3010E94A30202FFBB
:1004A0001DC001FD03C088E790E00EC088E590E024
:1004B0000BC0802F867891F001FF02C08BE201C053
:1004C00080E2F7FC8DE290E0B3010E94A30206C037
:1004D00080E390E0B3010E94A3029A94D914C0F380
:1004E000DA94F101ED0DF11D808190E0B3010E94DD
:1004F000A302DD20A9F706C080E290E0B3010E94CC
:10050000A302EA94EE20C1F743CEF301668177811E
:10051000CB012B96E2E10C94C10AFC0105906150DD
:1005200070400110D8F7809590958E0F9F1F089509
:10053000FC016150704001900110D8F780959095B2
:100540008E0F9F1F08950F931F93CF93DF938C01FE
:10055000EB018B8181FF1BC082FF0DC02E813F818B
:100560008C819D812817390764F4E881F981019312
:10057000F983E88306C0E885F985802F0995892BE2
:1005800031F48E819F8101969F838E8302C00FEF8D
:100590001FEFC801DF91CF911F910F910895FA01CC
:1005A000AA27283051F1203181F1E8946F936E7FB2
:1005B0006E5F7F4F8F4F9F4FAF4FB1E03ED0B4E0A3
:1005C0003CD0670F781F891F9A1FA11D680F791FE4
:1005D0008A1F911DA11D6A0F711D811D911DA11DF5
:1005E00020D009F468943F912AE0269F1124301905
:1005F000305D3193DEF6CF010895462F4770405DA0
:100600004193B3E00FD0C9F7F6CF462F4F70405D4E
:100610004A3318F0495D31FD4052419302D0A9F7A9
:10062000EACFB4E0A6959795879577956795BA95A3
:10063000C9F700976105710508959B01AC010A2E69
:1006400006945795479537952795BA95C9F7620F40
:10065000731F841F951FA01D08951F93CF93DF93D1
:10066000182FC0E0D0E017FF03C087E061E002C0B0
:1006700087E060E00E94510688E060E00E94510639
:1006800088E061E00E9451062196C830D10511F042
:10069000110FE9CF86E060E00E94510686E061E03C
:1006A0000E945106DF91CF911F9108958091200102
:1006B0009091210182309105F1F08330910524F46D
:1006C000019709F04EC007C08330910529F10497C6
:1006D00009F047C034C082E061E00E945106E09119
:1006E0002201FF27E7FDF095EA5FFE4F80810E941F
:1006F0002D0385E020C085E061E00E945106E09175
:100700002301FF27E7FDF095EA5FFE4F80818068B7
:100710000E942D0384E00FC084E061E00E94510636
:10072000E0912401FF27E7FDF095EA5FFE4F80810D
:100730000E942D0383E060E00E945106089583E04B
:1007400061E00E945106E0912501FF27E7FDF09549
:10075000EA5FFE4F80810E942D0382E060E00E94EC
:100760005106089580912001909121010196909366
:10077000210180932001059731F481E090E090936E
:100780002101809320010E9456038CEC86BD0895C0
:10079000EF92FF920F931F93DF93CF9300D000D07F
:1007A000CDB7DEB78EE00E940906AA2797FDA09577
:1007B000BA2FBC01CD010E94670920E030E04AEF6A
:1007C0005EE30E94F30900D000D000D00DB71EB741
:1007D0000F5F1F4F7E010894E11CF11CEDB7FEB7BF
:1007E000F282E18220E031E0F801338322830E942B
:1007F0003409F801758364830E948C008DB79EB71D
:1008000006960FB6F8949EBF0FBE8DBF8DEB91E09C
:10081000B7010E94210989818F70809322018A810A
:100820008F70809323018B818F70809324018C8142
:100830008F708093250168EC70E080E090E00E946A
:1008400075050F900F900F900F90CF91DF911F9132
:100850000F91FF90EF9008950F931F938DEB91E010
:1008600040E855E260E070E00E94360787E061E012
:100870000E942B0688E061E00E942B0686E061E082
:100880000E942B0685E061E00E942B0684E061E077
:100890000E942B0683E061E00E942B0682E061E06B
:1008A0000E942B06109221011092200106E211E015
:1008B000C80140E553EC60E070E00E940605C80105
:1008C00062EB73E02FEF3FEF4FEF5FEF0E940E05FB
:1008D0001F910F9108951F920F920FB60F9211243E
:1008E0002F933F934F935F936F937F938F939F9338
:1008F000AF93BF93EF93FF93E0912A01F0912B0107
:100900000995FF91EF91BF91AF919F918F917F9149
:100910006F915F914F913F912F910F900FBE0F906C
:100920001F901895FC01A3E0440F551F661F771F09
:10093000AA95D1F7403080E0580781E0680780E051
:10094000780714F481E010C033E0759567955795EA
:1009500047953A95D1F7403080E0580781E0680725
:1009600080E078071CF482E0828339C023E075952B
:100970006795579547952A95D1F7403080E05807FD
:1009800081E0680780E0780714F483E0EDCF92E01F
:1009900075956795579547959A95D1F7403080E0C2
:1009A000580781E0680780E0780714F484E0DCCF22
:1009B00082E075956795579547958A95D1F74030B0
:1009C00080E0580781E0680780E0780714F485E04C
:1009D000CBCF85E082834FEF5FEF60E070E08FB7B1
:1009E0008383F8945183408350938700409386001B
:1009F00083818FBF80918100887F80938100809167
:100A000081009281892B809381000895109280004B
:100A100020E1209381000E94920408950F931F9378
:100A2000CF93DF93EC018B01121613061406150603
:100A300024F4BA01A9010E9492041D830C8381E071
:100A400080936F00809181009A81892B809381002F
:100A5000DF91CF911F910F9108951F920F920FB6C2
:100A60000F9211242F933F938F939F93AF93BF9334
:100A70008091300190913101A0913201B091330108
:100A8000309134010196A11DB11D232F2D5F2D370B
:100A900020F02D570196A11DB11D209334018093A4
:100AA000300190933101A0933201B09333018091D2
:100AB0002C0190912D01A0912E01B0912F01019652
:100AC000A11DB11D80932C0190932D01A0932E01A7
:100AD000B0932F01BF91AF919F918F913F912F9133
:100AE0000F900FBE0F901F9018959B01AC017FB720
:100AF000F89480912C0190912D01A0912E01B0913C
:100B00002F0166B5A89B05C06F3F19F00196A11D86
:100B1000B11D7FBFBA2FA92F982F8827860F911D4F
:100B2000A11DB11D62E0880F991FAA1FBB1F6A9506
:100B3000D1F7BC012DC0FFB7F89480912C019091A2
:100B40002D01A0912E01B0912F01E6B5A89B05C003
:100B5000EF3F19F00196A11DB11DFFBFBA2FA92FBC
:100B6000982F88278E0F911DA11DB11DE2E0880FDF
:100B7000991FAA1FBB1FEA95D1F7861B970B885EAA
:100B80009340C8F2215030404040504068517C4F63
:100B9000211531054105510571F60895789484B504
:100BA000826084BD84B5816084BD85B5826085BD69
:100BB00085B5816085BDEEE6F0E08081816080834F
:100BC000E1E8F0E010828081826080838081816032
:100BD0008083E0E8F0E0808181608083E1EBF0E0F9
:100BE000808184608083E0EBF0E08081816080839D
:100BF000EAE7F0E080818460808380818260808386
:100C00008081816080838081806880831092C100B0
:100C10000895982F8E3008F09E50977080910501AE
:100C20008295880F880F807C892B80937C0080912F
:100C30007A00806480937A0080917A0086FDFCCFF0
:100C40002091780040917900942F80E030E0282BAB
:100C5000392BC9010895482F50E0CA0186569F4F8D
:100C6000FC0124914A575F4FFA0184918823C1F017
:100C7000E82FF0E0EE0FFF1FE859FF4FA591B49168
:100C8000662341F49FB7F8948C91209582238C932E
:100C90009FBF08959FB7F8948C91822B8C939FBF30
:100CA0000895482F50E0CA0182559F4FFC012491BE
:100CB000CA0186569F4FFC0194914A575F4FFA0133
:100CC0003491332309F440C0222351F1233071F0D1
:100CD000243028F42130A1F0223011F514C0263040
:100CE000B1F02730C1F02430D9F404C080918000E5
:100CF0008F7703C0809180008F7D8093800010C02B
:100D000084B58F7702C084B58F7D84BD09C0809182
:100D1000B0008F7703C08091B0008F7D8093B000CA
:100D2000E32FF0E0EE0FFF1FEE58FF4FA591B491B7
:100D30002FB7F894662321F48C919095892302C0F3
:100D40008C91892B8C932FBF089508951F920F9239
:100D50000FB60F9211242F933F934F938F939F932E
:100D6000EF93FF934091C600209175013091760179
:100D70002F5F3F4F2F7330708091770190917801F2
:100D80002817390759F0E0917501F0917601EB5C75
:100D9000FE4F40833093760120937501FF91EF91D0
:100DA0009F918F914F913F912F910F900FBE0F9078
:100DB0001F901895E091C901F091CA01E05CFF4FC6
:100DC0008191919120813181821B930B8F7390705F
:100DD000892B11F00E94A50608951F920F920FB65D
:100DE0000F9211242F933F934F935F936F937F93B1
:100DF0008F939F93AF93BF93EF93FF932091B9018C
:100E00003091BA018091BB019091BC01281739073C
:100E100031F48091C1008F7D8093C10016C0E091B4
:100E2000BB01F091BC01E758FE4F40818091BB01AE
:100E30009091BC01019660E470E00E94560A909384
:100E4000BC018093BB014093C600FF91EF91BF911D
:100E5000AF919F918F917F916F915F914F913F9152
:100E60002F910F900FBE0F901F901895AF92BF92C9
:100E7000DF92EF92FF920F931F93CF93DF93EC01DA
:100E80007A018B01DD24403081EE580780E068074D
:100E900080E0780711F0DD24D39491E0A92EB12CE5
:100EA000EC89FD89DD2069F0C5010E8C02C0880F38
:100EB000991F0A94E2F7808360E079E08DE390E087
:100EC00005C0108260E874E88EE190E0A801970107
:100ED0000E94690A21503040404050405695479545
:100EE0003795279580E12030380720F0DD2011F07C
:100EF000DD24D6CFE889F9893083EA89FB8920830C
:100F0000EE89FF89408121E030E0C9010A8C02C0EE
:100F1000880F991F0A94E2F7482B4083EE89FF89D6
:100F20004081C9010B8C02C0880F991F0A94E2F717
:100F3000482B4083EE89FF894081C9010C8C02C097
:100F4000880F991F0A94E2F7482B4083EE89FF89A6
:100F500080810D8C02C0220F331F0A94E2F7209586
:100F600028232083DF91CF911F910F91FF90EF9065
:100F7000DF90BF90AF900895DC011C96ED91FC913D
:100F80001D97E05CFF4F2191319180819181281B59
:100F9000390B2F733070C9010895DC011C96ED9157
:100FA000FC911D97E05CFF4F20813181E054F040BF
:100FB000DF01AE5BBF4F8D919C91119728173907C8
:100FC00019F42FEF3FEF07C08D919C91E80FF91FA7
:100FD0008081282F30E0C9010895DC011C96ED9135
:100FE000FC911D97E05CFF4F20813181E054F0407F
:100FF000DF01AE5BBF4F8D919C9111972817390788
:1010000019F42FEF3FEF10C08D919C911197E80FCD
:10101000F91F20818D919C91119701968F7390708B
:1010200011969C938E9330E0C9010895FC0186854A
:101030009785DC01A05CBF4FFC01EE5BFF4F2D915B
:101040003C9111978081918128173907C1F7089544
:10105000CF93DF93EC01462FEE85FF85E05CFF4FD9
:1010600080819181E054F040019660E470E00E943C
:10107000560A9C01DF01AE5BBF4F8D919C91119789
:1010800028173907D1F3E05CFF4F80819181E0544C
:10109000F040E80FF91F4083EE85FF85E05CFF4FCD
:1010A00031832083EE89FF89208181E090E00D8CDF
:1010B00002C0880F991F0A94E2F7282B208381E051
:1010C00090E0DF91CF9108951092C0011092BF017E
:1010D00088EE93E0A0E0B0E08093C1019093C2015C
:1010E000A093C301B093C40184E191E09093BE0149
:1010F0008093BD0185E391E09093CA018093C9017B
:1011000089E791E09093CC018093CB0185EC90E04E
:101110009093CE018093CD0184EC90E09093D00128
:101120008093CF0180EC90E09093D2018093D10125
:1011300081EC90E09093D4018093D30186EC90E011
:101140009093D6018093D50184E08093D70183E00A
:101150008093D80187E08093D90185E08093DA01FC
:1011600081E08093DB010895CF93DF930E94CE0549
:101170000E942C04CAEDD6E00E94C8032097E1F338
:101180000E94DA06F9CFCF92DF92EF92FF920F938F
:101190001F93CF93DF937C016B018A01C0E0D0E005
:1011A0000FC0D6016D916D01D701ED91FC910190B9
:1011B000F081E02DC7010995C80FD91F01501040DB
:1011C0000115110571F7CE01DF91CF911F910F919C
:1011D000FF90EF90DF90CF900895EF92FF920F93E2
:1011E0001F938C01DC01ED91FC910190F081E02DC9
:1011F0006DE009957C01D801ED91FC910190F081A1
:10120000E02DC8016AE009959C012E0D3F1DC90122
:101210001F910F91FF90EF900895CF93DF93DB0123
:101220000D900020E9F71197A61BB70BEC01E881A0
:10123000F9810280F381E02DAD010995DF91CF9115
:101240000895EF92FF920F931F937C010E940D0966
:101250008C01C7010E94ED08080F191FC8011F91DA
:101260000F91FF90EF90089504D06894B111B5C02C
:10127000089598D088F09F5790F0B92F9927B751CB
:10128000A0F0D1F0660F771F881F991F1AF0BA954A
:10129000C9F712C0B13081F09FD0B1E008959CC071
:1012A000672F782F8827B85F39F0B93FCCF3869540
:1012B00077956795B395D9F73EF49095809570959D
:1012C00061957F4F8F4F9F4F0895E89409C097FB1A
:1012D0003EF490958095709561957F4F8F4F9F4F0D
:1012E0009923A9F0F92F96E9BB279395F695879551
:1012F00077956795B795F111F8CFFAF4BB0F11F414
:1013000060FF1BC06F5F7F4F8F4F9F4F16C08823BA
:1013100011F096E911C0772321F09EE8872F762FF0
:1013200005C0662371F096E8862F70E060E02AF031
:101330009A95660F771F881FDAF7880F969587951D
:1013400097F9089597F99F6780E870E060E0089545
:101350009FEF80EC089500240A94161617061806CD
:101360000906089500240A941216130614060506A9
:101370000895092E0394000C11F4882352F0BB0F3A
:1013800040F4BF2B11F460FF04C06F5F7F4F8F4F9D
:101390009F4F089557FD9058440F551F59F05F3FD8
:1013A00071F04795880F97FB991F61F09F3F79F087
:1013B00087950895121613061406551FF2CF469509
:1013C000F1DF08C0161617061806991FF1CF86958B
:1013D0007105610508940895E894BB27662777276F
:1013E000CB0197F908950BD0C4CFB5DF28F0BADF51
:1013F00018F0952309F0A6CFABCF1124EECFCADFAA
:10140000A0F3959FD1F3950F50E0551F629FF00117
:10141000729FBB27F00DB11D639FAA27F00DB11D70
:10142000AA1F649F6627B00DA11D661F829F2227F9
:10143000B00DA11D621F739FB00DA11D621F839F80
:10144000A00D611D221F749F3327A00D611D231F56
:10145000849F600D211D822F762F6A2F11249F57A4
:1014600050408AF0E1F088234AF0EE0FFF1FBB1FC7
:10147000661F771F881F91505040A9F79E3F510566
:1014800070F060CFAACF5F3FECF3983EDCF3869517
:1014900077956795B795F795E7959F5FC1F7FE2B11
:1014A000880F911D9695879597F9089597FB092EBA
:1014B00007260AD077FD04D02ED006D000201AF4DB
:1014C000709561957F4F0895F6F7909581959F4FA0
:1014D0000895A1E21A2EAA1BBB1BFD010DC0AA1F75
:1014E000BB1FEE1FFF1FA217B307E407F50720F08D
:1014F000A21BB30BE40BF50B661F771F881F991F08
:101500001A9469F760957095809590959B01AC0150
:10151000BD01CF010895AA1BBB1B51E107C0AA1F43
:10152000BB1FA617B70710F0A61BB70B881F991F84
:101530005A95A9F780959095BC01CD010895EE0FBD
:10154000FF1F0590F491E02D09942F923F924F9246
:101550005F926F927F928F929F92AF92BF92CF9243
:10156000DF92EF92FF920F931F93CF93DF93CDB74C
:10157000DEB7CA1BDB0B0FB6F894DEBF0FBECDBFC4
:1015800009942A88398848885F846E847D848C8495
:101590009B84AA84B984C884DF80EE80FD800C819E
:1015A0001B81AA81B981CE0FD11D0FB6F894DEBF81
:0C15B0000FBECDBFED010895F894FFCFF1
:1015BC002530346400013F065B4F666D7D077F6FFD
:1015CC00000000002808C308BC07ED07CD0716086B
:00000001FF
