:100000000C9461000C947E000C947E000C947E0095
:100010000C947E000C947E000C947E000C947E0068
:100020000C947E000C947E000C947E000C947E0058
:100030000C947E000C947E000C947E000C947E0048
:100040000C94EE000C947E000C947E000C947E00C8
:100050000C947E000C947E000C947E000C947E0028
:100060000C947E000C947E00000000002400270009
:100070002A0000000000250028002B0000000000DE
:1000800023002600290004040404040404040202DA
:100090000202020203030303030301020408102007
:1000A0004080010204081020010204081020000012
:1000B0000007000201000003040600000000000029
:1000C000000011241FBECFEFD8E0DEBFCDBF11E08E
:1000D000A0E0B1E0E4E9F5E002C005900D92A230A5
:1000E000B107D9F711E0A2E0B1E001C01D92AF3035
:1000F000B107E1F70E94B9020C94C8020C94000009
:1001000084E00E946602019781F488EE93E0909368
:1001100003018093020183E10E94CA018150924051
:1001200024F08CE061E00E94120280910201909123
:10013000030101979093030180930201892B51F4ED
:100140008091040190910501892B21F48CE060E0FD
:100150000E94120283E00E946602892B51F48CE017
:1001600061E00E94120281E090E09093050180938B
:10017000040182E00E946602892B41F48CE060E079
:100180000E94120210920501109204016AE070E0D0
:1001900080E090E00E94360108958CE061E00E94CA
:1001A000EC0183E060E00E94EC0182E060E00E94EC
:1001B000EC0184E060E00E94EC0183E061E00E94D9
:1001C000120282E061E00E94120284E061E00E947B
:1001D00012028CE060E00E94120208951F920F92BA
:1001E0000FB60F9211242F933F938F939F93AF934A
:1001F000BF9380910A0190910B01A0910C01B091E5
:100200000D0130910E010196A11DB11D232F2D5F0F
:100210002D3720F02D570196A11DB11D20930E0101
:1002200080930A0190930B01A0930C01B0930D01F0
:100230008091060190910701A0910801B0910901F8
:100240000196A11DB11D8093060190930701A09313
:100250000801B0930901BF91AF919F918F913F9198
:100260002F910F900FBE0F901F9018959B01AC011E
:100270007FB7F8948091060190910701A091080141
:10028000B091090166B5A89B05C06F3F19F00196B2
:10029000A11DB11D7FBFBA2FA92F982F8827860FC8
:1002A000911DA11DB11D62E0880F991FAA1FBB1FE0
:1002B0006A95D1F7BC012DC0FFB7F8948091060173
:1002C00090910701A0910801B0910901E6B5A89BA2
:1002D00005C0EF3F19F00196A11DB11DFFBFBA2F58
:1002E000A92F982F88278E0F911DA11DB11DE2E027
:1002F000880F991FAA1FBB1FEA95D1F7861B970B82
:10030000885E9340C8F221503040404050406851D0
:100310007C4F211531054105510571F608957894FA
:1003200084B5826084BD84B5816084BD85B58260FA
:1003300085BD85B5816085BDEEE6F0E08081816098
:100340008083E1E8F0E01082808182608083808198
:1003500081608083E0E8F0E0808181608083E1EB70
:10036000F0E0808184608083E0EBF0E08081816058
:100370008083EAE7F0E0808184608083808182600E
:1003800080838081816080838081806880831092F7
:10039000C1000895982F8E3008F09E50977080917C
:1003A00000018295880F880F807C892B80937C00C8
:1003B00080917A00806480937A0080917A0086FD33
:1003C000FCCF2091780040917900942F80E030E0BC
:1003D000282B392BC9010895482F50E0CA018656B1
:1003E0009F4FFC0124914A575F4FFA018491882363
:1003F000C1F0E82FF0E0EE0FFF1FE859FF4FA59185
:10040000B491662341F49FB7F8948C912095822390
:100410008C939FBF08959FB7F8948C91822B8C93F7
:100420009FBF0895482F50E0CA0182559F4FFC019D
:100430002491CA0186569F4FFC0194914A575F4F01
:10044000FA013491332309F440C0222351F12330BF
:1004500071F0243028F42130A1F0223011F514C0BD
:100460002630B1F02730C1F02430D9F404C0809197
:1004700080008F7703C0809180008F7D8093800003
:1004800010C084B58F7702C084B58F7D84BD09C04C
:100490008091B0008F7703C08091B0008F7D8093F2
:1004A000B000E32FF0E0EE0FFF1FEE58FF4FA591D5
:1004B000B4912FB7F894662321F48C9190958923F9
:1004C00002C08C91892B8C932FBF0895682F70E008
:1004D000CB0182559F4FFC012491CB0186569F4F43
:1004E000FC0144916A577F4FFB019491992319F4C1
:1004F00020E030E03CC0222351F1233071F0243061
:1005000028F42130A1F0223011F514C02630B1F0CA
:100510002730C1F02430D9F404C0809180008F7757
:1005200003C0809180008F7D8093800010C084B5CF
:100530008F7702C084B58F7D84BD09C08091B000E3
:100540008F7703C08091B0008F7D8093B000892F9A
:1005500090E0880F991F84589F4FFC01A591B4919A
:100560008C9120E030E0842311F021E030E0C901DB
:100570000895CF93DF930E948F010E94CD00C0E0C9
:10058000D0E00E9480002097E1F30E940000F9CFA4
:04059000F894FFCF0D
:02059400010064
:00000001FF
