:100000000C945C000C946E000C946E000C946E00CA
:100010000C946E000C946E000C946E000C946E00A8
:100020000C946E000C946E000C946E000C946E0098
:100030000C946E000C946E000C946E000C946E0088
:100040000C9470000C946E000C946E000C946E0076
:100050000C946E000C946E000C946E000C946E0068
:100060000C946E000C946E00000000002400270029
:100070002A0000000000250028002B0004040404CE
:100080000404040402020202020203030303030342
:10009000010204081020408001020408102001021F
:1000A00004081020000000080002010000030407FB
:1000B000000000000000000011241FBECFEFD8E0B8
:1000C000DEBFCDBF21E0A0E0B1E001C01D92AF30A6
:1000D000B207E1F70E94BA000C94AB010C94000047
:1000E0001F920F920FB60F9211242F933F938F936D
:1000F0009F93AF93BF9380910B0190910C01A091BE
:100100000D01B0910E0130910A0123E0230F2D372C
:1001100020F40196A11DB11D05C026E8230F02960B
:10012000A11DB11D20930A0180930B0190930C0136
:10013000A0930D01B0930E018091060190910701EB
:10014000A0910801B09109010196A11DB11D8093F4
:10015000060190930701A0930801B0930901BF9194
:10016000AF919F918F913F912F910F900FBE0F9064
:100170001F901895789484B5826084BD84B58160A1
:1001800084BD85B5826085BD85B5816085BD809162
:100190006E00816080936E001092810080918100DA
:1001A00082608093810080918100816080938100D2
:1001B000809180008160809380008091B100846094
:1001C0008093B1008091B00081608093B0008091F5
:1001D0007A00846080937A0080917A0082608093B4
:1001E0007A0080917A00816080937A0080917A0011
:1001F000806880937A001092C100CDE9D0E0FE01C2
:10020000249109E810E0F8018491882399F090E0A6
:10021000880F991FFC01E859FF4FA591B491FC018B
:10022000EE58FF4F859194919FB7F8948C91822B53
:100230008C939FBF91EBE92E90E0F92E20E0C22E27
:1002400020E0D22EAA24A394B12C2FB7F894809149
:100250000B0190910C01A0910D01B0910E012FBFE7
:1002600040910201509103016091040170910501D8
:100270003C014D01641A750A860A970A24EF62163A
:1002800021E072068104910408F45EC080930201AB
:1002900090930301A0930401B093050180910001A4
:1002A00090910101892B29F4B0920101A0920001E3
:1002B00004C01092010110920001F7018491FE0127
:1002C0009491F8013491332309F43EC02091000148
:1002D000882339F1833091F038F48130A9F08230ED
:1002E00001F584B58F7D12C0873091F08830A1F080
:1002F0008430B9F4809180008F7D03C080918000AC
:100300008F77809380000DC084B58F7784BD09C03E
:100310008091B0008F7703C08091B0008F7D809373
:10032000B000E32FF0E0EE0FFF1FEE58FF4FA59156
:10033000B4913FB7F8948C91211103C09095982304
:1003400001C0982B9C933FBFC114D10409F47DCF09
:0A0350000E9400007ACFF894FFCF5E
:00000001FF
