:100000000C9461000C94CC050C94F9050C947E00C2
:100010000C947E000C947E000C947E000C947E0068
:100020000C947E000C947E000C947E000C947E0058
:100030000C947E000C94E7040C947E000C947E00DB
:100040000C9426060C947E000C947E000C947E008A
:100050000C947E000C947E000C947E000C947E0028
:100060000C947E000C947E00000000002400270009
:100070002A0000000000250028002B0000000000DE
:1000800023002600290004040404040404040202DA
:100090000202020203030303030301020408102007
:1000A0004080010204081020010204081020000012
:1000B0000007000201000003040600000000000029
:1000C000000011241FBECFEFD8E0DEBFCDBF11E08E
:1000D000A0E0B1E0E4E0F3E102C005900D92A031B0
:1000E000B107D9F711E0A0E1B1E001C01D92A7333B
:1000F000B107E1F70E94B0070C9480090C9400004E
:10010000AEE0B0E0E6E8F0E00C9457090D891E89F6
:1001100086E08C831A8309838FEF9FE79E838D830C
:100120009E01275E3F4FCE0101966F89788DA90110
:100130000E94A4002F813885020F131FF80110823E
:100140002E96E4E00C947309ABE0B0E0EAEAF0E04C
:100150000C9449093C012B015A01FC0117821682BB
:10016000838181FD03C06FEF7FEFC6C19AE0892EC6
:100170001E010894211C311CF3012381F20123FD8F
:10018000859123FF81912F01882309F4B2C1853223
:1001900039F423FD859123FF81912F01853229F4C4
:1001A00090E0B3010E949702E7CF982FFF24EE243E
:1001B0009924FFE1FF15D0F09B3269F09C3228F4BE
:1001C000903259F0933291F40EC09D3249F0903341
:1001D00069F441E024C052E0F52A84E0F82A28C0FE
:1001E00098E0F92A25C0E0E1FE2A22C0F7FC29C0E8
:1001F000892F80538A3070F4F6FE05C0989C902CAD
:100200001124980E15C0E89CE02C1124E80EF0E2B1
:10021000FF2A0EC09E3229F4F6FC6BC140E4F42A9A
:1002200007C09C3619F450E8F52A02C0983649F404
:10023000F20123FD959123FF91912F01992309F05C
:10024000B8CF892F8554833018F08052833038F42A
:1002500044E050E0A40EB51E5FE359830FC093360F
:1002600031F0933779F0933509F056C020C0F5018D
:100270008081898342E050E0A40EB51E610101E057
:1002800010E012C0F501C080D180F6FC03C06FEF12
:100290007FEF02C0692D70E042E050E0A40EB51E71
:1002A000C6010E948C028C015FE7F52214C0F501A3
:1002B000C080D180F6FC03C06FEF7FEF02C0692DD4
:1002C00070E042E050E0A40EB51EC6010E9481021B
:1002D0008C0150E8F52AF3FE07C01AC080E290E0D6
:1002E000B3010E949702EA948E2D90E00817190737
:1002F000A8F30EC0F601F7FC8591F7FE81916F011E
:1003000090E0B3010E949702E110EA94015010407E
:100310000115110579F7EAC0943611F0993669F59F
:10032000F7FE08C0F501208131814281538184E0CC
:1003300090E00AC0F501808191819C01442737FD3E
:100340004095542F82E090E0A80EB91E9FE6F92256
:1003500057FF09C050954095309521953F4F4F4F1D
:100360005F4FE0E8FE2ACA01B901A1012AE030E0AE
:100370000E94C302D82ED21840C0953729F41F2DF1
:100380001F7E2AE030E01DC01F2D197F9F3661F0CF
:10039000903720F4983509F0ACC00FC0903739F091
:1003A000983709F0A6C004C028E030E00AC0106108
:1003B00014FD146020E130E004C014FD166020E15B
:1003C00032E017FF08C0F50160817181828193815D
:1003D00044E050E008C0F50180819181BC0180E0DB
:1003E00090E042E050E0A40EB51EA1010E94C302BD
:1003F000D82ED2188FE7F82EF122F6FE0BC05EEF52
:10040000F522D91438F4F4FE07C0F2FC05C08FEED3
:10041000F82202C01D2D01C0192DF4FE0DC0FE01F1
:10042000ED0DF11D8081803319F499EEF92208C099
:100430001F5FF2FE05C003C08F2D867809F01F5F95
:100440000F2DF3FC14C0F0FE0FC01E1510F09D2CF4
:100450000BC09D2C9E0C911A1E2D06C080E290E0D0
:10046000B3010E9497021F5F1E15C0F304C01E1542
:1004700010F4E11A01C0EE2404FF0FC080E390E005
:10048000B3010E94970202FF1DC001FD03C088E76F
:1004900090E00EC088E590E00BC0802F867891F048
:1004A00001FF02C08BE201C080E2F7FC8DE290E028
:1004B000B3010E94970206C080E390E0B3010E945E
:1004C00097029A94D914C0F3DA94F101ED0DF11D5D
:1004D000808190E0B3010E949702DD20A9F706C059
:1004E00080E290E0B3010E949702EA94EE20C1F707
:1004F00043CEF30166817781CB012B96E2E10C9428
:100500006509FC010590615070400110D8F7809595
:1005100090958E0F9F1F0895FC01615070400190CF
:100520000110D8F7809590958E0F9F1F08950F9317
:100530001F93CF93DF938C01EB018B8181FF1BC055
:1005400082FF0DC02E813F818C819D812817390744
:1005500064F4E881F9810193F983E88306C0E885B2
:10056000F985802F0995892B31F48E819F81019621
:100570009F838E8302C00FEF1FEFC801DF91CF91E1
:100580001F910F910895FA01AA27283051F12031C7
:1005900081F1E8946F936E7F6E5F7F4F8F4F9F4F17
:1005A000AF4FB1E03ED0B4E03CD0670F781F891F59
:1005B0009A1FA11D680F791F8A1F911DA11D6A0F27
:1005C000711D811D911DA11D20D009F468943F91DA
:1005D0002AE0269F11243019305D3193DEF6CF01D9
:1005E0000895462F4770405D4193B3E00FD0C9F79F
:1005F000F6CF462F4F70405D4A3318F0495D31FD0C
:100600004052419302D0A9F7EACFB4E0A69597955E
:10061000879577956795BA95C9F700976105710534
:1006200008959B01AC010A2E06945795479537957E
:100630002795BA95C9F7620F731F841F951FA01DD8
:100640000895EF92FF920F931F930E947C062091D2
:100650001401309115014091160150911701E0905D
:100660001A01F0901B0100911C0110911D012E191F
:100670003F09400B510B260F371F481F591F20936E
:1006800014013093150140931601509317016093A4
:100690001A0170931B0180931C0190931D0180919E
:1006A00018019091190101969093190180931801F6
:1006B0001F910F91FF90EF9008951F93CF93DF93B9
:1006C000182FC0E0D0E017FF03C089E061E002C04E
:1006D00089E060E00E945C078AE060E00E945C07BD
:1006E0008AE061E00E945C072196C830D10511F0D4
:1006F000110FE9CF88E060E00E945C0788E061E0CC
:100700000E945C07DF91CF911F91089580911E0197
:1007100090911F0182309105F1F08330910524F40E
:10072000019709F04DC007C08330910521F104976E
:1007300009F046C033C084E061E00E945C07E091AC
:100740002001FF27E7FDF095EB5FFE4F80810E94BF
:100750005D0387E01FC087E061E00E945C07E091D5
:100760002101FF27E7FDF095EB5FFE4F80810E949E
:100770005D0386E00FC086E061E00E945C07E091C7
:100780002201FF27E7FDF095EB5FFE4F80810E947D
:100790005D0385E060E00E945C07089585E061E00C
:1007A0000E945C07E0912301FF27E7FDF095EB5FD6
:1007B000FE4F80810E945D0384E060E00E945C0740
:1007C000089580911E0190911F01019690931F0141
:1007D00080931E01059731F481E090E090931F0112
:1007E00080931E010E9486038CEC86BD08958F9233
:1007F0009F92AF92BF92CF92DF92EF92FF920F93B0
:100800001F93DF93CF9300D000D0CDB7DEB70E9407
:100810006E069B01AC018091100190911101A09195
:100820001201B091130179018A01E81AF90A0A0B41
:100830001B0BD801C70184369105A105B10508F449
:1008400071C0209310013093110140931201509315
:10085000130160911401709115018091160190911E
:100860001701E0901801F0901901109214011092F4
:100870001501109216011092170110921901109291
:1008800018010E9458089B01AC0160E074E284E703
:1008900099E40E94BF075B016C0100D000D000D03A
:1008A0008DB69EB60894811C911CCE010196EDB7C1
:1008B000FEB79283818380E091E0F4019383828389
:1008C00000E010E0C801B7010E9458089B01AC018C
:1008D000C601B5010E94E60820E030E040E752E49E
:1008E0000E94E6080E942708F401758364830E9431
:1008F000800089818F70809320018A818F7080931E
:1009000021018B818F70809322018C818F70809365
:1009100023010DB71EB70A5F1F4F0FB6F8941EBF15
:100920000FBE0DBF68EC70E080E090E00E94A20670
:100930000F900F900F900F90CF91DF911F910F911B
:10094000FF90EF90DF90CF90BF90AF909F908F90EF
:1009500008950F931F9380E061E273E043E050E05D
:100960000E94A90589E061E00E9436078AE061E003
:100970000E94360788E061E00E94360787E061E068
:100980000E94360786E061E00E94360785E061E05C
:100990000E94360784E061E00E94360710921F0132
:1009A00010921E0104E211E0C80140E157E260E04C
:1009B00070E00E948205C80161EE73E02FEF3FEF07
:1009C0004FEF5FEF0E948A051F910F9108951F92CC
:1009D0000F920FB60F9211242F933F934F935F9373
:1009E0006F937F938F939F93AF93BF93EF93FF93F7
:1009F000E0912801F09129010995FF91EF91BF91B4
:100A0000AF919F918F917F916F915F914F913F91A6
:100A10002F910F900FBE0F901F901895FC01A3E02F
:100A2000440F551F661F771FAA95D1F7403080E00D
:100A3000580781E0680780E0780714F481E010C06F
:100A400033E075956795579547953A95D1F74030BE
:100A500080E0580781E0680780E078071CF482E0B6
:100A6000828339C023E075956795579547952A95F8
:100A7000D1F7403080E0580781E0680780E07807D0
:100A800014F483E0EDCF92E07595679557954795FF
:100A90009A95D1F7403080E0580781E0680780E000
:100AA000780714F484E0DCCF82E07595679557955C
:100AB00047958A95D1F7403080E0580781E0680774
:100AC00080E0780714F485E0CBCF85E082834FEF98
:100AD0005FEF60E070E08FB78383F89451834083C9
:100AE000509387004093860083818FBF809181005F
:100AF000887F80938100809181009281892B8093EF
:100B0000810008951092800020E1209381000E94CE
:100B10000E0508950F931F93CF93DF93EC018B0184
:100B2000121613061406150624F4BA01A9010E9430
:100B30000E051D830C8381E080936F0080918100FE
:100B40009A81892B80938100DF91CF911F910F9122
:100B50000895823000F5E82FF0E0EE0FFF1FE65D0C
:100B6000FE4F71836083882319F08130A1F408C09F
:100B7000809169008C7F842B80936900E89A0895A6
:100B800080916900440F551F440F551F837F842BAC
:100B900080936900E99A08951F920F920FB60F9201
:100BA00011242F933F934F935F936F937F938F9372
:100BB0009F93AF93BF93EF93FF9380912A019091FE
:100BC0002B01892B29F0E0912A01F0912B01099545
:100BD000FF91EF91BF91AF919F918F917F916F9115
:100BE0005F914F913F912F910F900FBE0F901F90EB
:100BF00018951F920F920FB60F9211242F933F93C7
:100C00004F935F936F937F938F939F93AF93BF9314
:100C1000EF93FF9380912C0190912D01892B29F066
:100C2000E0912C01F0912D010995FF91EF91BF9179
:100C3000AF919F918F917F916F915F914F913F9174
:100C40002F910F900FBE0F901F9018951F920F922B
:100C50000FB60F9211242F933F938F939F93AF93CF
:100C6000BF938091320190913301A0913401B091F2
:100C70003501309136010196A11DB11D232F2D5F45
:100C80002D3720F02D570196A11DB11D209336015F
:100C90008093320190933301A0933401B0933501D6
:100CA00080912E0190912F01A0913001B0913101DE
:100CB0000196A11DB11D80932E0190932F01A09349
:100CC0003001B0933101BF91AF919F918F913F91CE
:100CD0002F910F900FBE0F901F9018958FB7F8941B
:100CE000209132013091330140913401509135010E
:100CF0008FBFB901CA0108959FB7F89420912E01C2
:100D000030912F01409130015091310186B5A89B5F
:100D100006C08F3F21F02F5F3F4F4F4F5F4F9FBF68
:100D2000542F432F322F2227280F311D411D511DD3
:100D300082E0220F331F441F551F8A95D1F7B90156
:100D4000CA0108959B01AC017FB7F89480912E01F0
:100D500090912F01A0913001B091310166B5A89B0F
:100D600005C06F3F19F00196A11DB11D7FBFBA2FBD
:100D7000A92F982F8827860F911DA11DB11D62E014
:100D8000880F991FAA1FBB1F6A95D1F7BC012DC000
:100D9000FFB7F89480912E0190912F01A09130011E
:100DA000B0913101E6B5A89B05C0EF3F19F001965F
:100DB000A11DB11DFFBFBA2FA92F982F88278E0F15
:100DC000911DA11DB11DE2E0880F991FAA1FBB1F35
:100DD000EA95D1F7861B970B885E9340C8F22150A5
:100DE00030404040504068517C4F2115310541054D
:100DF000510571F60895789484B5826084BD84B5F8
:100E0000816084BD85B5826085BD85B5816085BD05
:100E1000EEE6F0E0808181608083E1E8F0E010821E
:100E2000808182608083808181608083E0E8F0E05F
:100E3000808181608083E1EBF0E080818460808349
:100E4000E0EBF0E0808181608083EAE7F0E0808180
:100E500084608083808182608083808181608083E0
:100E60008081806880831092C1000895482F50E0EF
:100E7000CA0186569F4FFC0124914A575F4FFA01E1
:100E800084918823C1F0E82FF0E0EE0FFF1FE859AE
:100E9000FF4FA591B491662341F49FB7F8948C91CC
:100EA000209582238C939FBF08959FB7F8948C91CF
:100EB000822B8C939FBF0895482F50E0CA01825522
:100EC0009F4FFC012491CA0186569F4FFC019491CB
:100ED0004A575F4FFA013491332309F440C022236B
:100EE00051F1233071F0243028F42130A1F0223068
:100EF00011F514C02630B1F02730C1F02430D9F4F8
:100F000004C0809180008F7703C0809180008F7D26
:100F10008093800010C084B58F7702C084B58F7D28
:100F200084BD09C08091B0008F7703C08091B0006C
:100F30008F7D8093B000E32FF0E0EE0FFF1FEE589F
:100F4000FF4FA591B4912FB7F894662321F48C91AB
:100F50009095892302C08C91892B8C932FBF089583
:100F6000CF93DF930E94FB060E94A904C0E0D0E06B
:100F70000E94F7032097E1F30E940000F9CF0CD004
:100F8000EBC0E3D040F0DAD030F021F45F3F19F04D
:100F9000CCC0511115C1CFC0F0D098F39923C9F33B
:100FA0005523B1F3951B550BBB27AA27621773076F
:100FB000840738F09F5F5F4F220F331F441FAA1F23
:100FC000A9F333D00E2E3AF0E0E830D091505040E3
:100FD000E695001CCAF729D0FE2F27D0660F771F91
:100FE000881FBB1F261737074807AB07B0E809F073
:100FF000BB0B802DBF01FF2793585F4F2AF09E3F08
:10100000510568F092C0DCC05F3FECF3983EDCF322
:10101000869577956795B795F7959F5FC9F7880F80
:10102000911D9695879597F90895E1E0660F771FD2
:10103000881FBB1F621773078407BA0720F0621B63
:10104000730B840BBA0BEE1F88F7E095089504D05C
:101050006894B111B5C0089598D088F09F5790F06A
:10106000B92F9927B751A0F0D1F0660F771F881FCD
:10107000991F1AF0BA95C9F712C0B13081F09FD00C
:10108000B1E008959CC0672F782F8827B85F39F0AA
:10109000B93FCCF3869577956795B395D9F73EF42C
:1010A00090958095709561957F4F8F4F9F4F0895D4
:1010B000E89409C097FB3EF49095809570956195F2
:1010C0007F4F8F4F9F4F9923A9F0F92F96E9BB27A8
:1010D0009395F695879577956795B795F111F8CF24
:1010E000FAF4BB0F11F460FF1BC06F5F7F4F8F4F8F
:1010F0009F4F16C0882311F096E911C0772321F085
:101100009EE8872F762F05C0662371F096E8862F1C
:1011100070E060E02AF09A95660F771F881FDAF773
:10112000880F9695879597F9089597F99F6780E8B6
:1011300070E060E008959FEF80EC089500240A9429
:101140001616170618060906089500240A941216A2
:101150001306140605060895092E0394000C11F4D5
:10116000882352F0BB0F40F4BF2B11F460FF04C082
:101170006F5F7F4F8F4F9F4F089557FD9058440FDB
:10118000551F59F05F3F71F04795880F97FB991FE6
:1011900061F09F3F79F087950895121613061406A3
:1011A000551FF2CF4695F1DF08C016161706180630
:1011B000991FF1CF86957105610508940895E8940B
:1011C000BB2766277727CB0197F908950BD0C4CFAB
:1011D000B5DF28F0BADF18F0952309F0A6CFABCF22
:1011E0001124EECFCADFA0F3959FD1F3950F50E005
:1011F000551F629FF001729FBB27F00DB11D639FC9
:10120000AA27F00DB11DAA1F649F6627B00DA11D6E
:10121000661F829F2227B00DA11D621F739FB00D14
:10122000A11D621F839FA00D611D221F749F332784
:10123000A00D611D231F849F600D211D822F762F1D
:101240006A2F11249F5750408AF0E1F088234AF01A
:10125000EE0FFF1FBB1F661F771F881F9150504066
:10126000A9F79E3F510570F060CFAACF5F3FECF326
:10127000983EDCF3869577956795B795F795E79552
:101280009F5FC1F7FE2B880F911D9695879597F963
:1012900008952F923F924F925F926F927F928F921A
:1012A0009F92AF92BF92CF92DF92EF92FF920F93F5
:1012B0001F93CF93DF93CDB7DEB7CA1BDB0B0FB6FF
:1012C000F894DEBF0FBECDBF09942A8839884888BC
:1012D0005F846E847D848C849B84AA84B984C88452
:1012E000DF80EE80FD800C811B81AA81B981CE0F49
:1012F000D11D0FB6F894DEBF0FBECDBFED0108952E
:04130000F894FFCF8F
:1013040025303464003F065B4F666D7D077F6F00B8
:00000001FF
