:100000000C9462000C948A000C948A000C948A0070
:100010000C948A000C948A000C948A000C948A0038
:100020000C948A000C948A000C948A000C948A0028
:100030000C948A000C9440050C948A000C948A005D
:100040000C9402060C948A000C94AC070C94F307F1
:100050000C948A000C948A000C948A000C948A00F8
:100060000C948A000C948A000000000024002700F1
:100070002A0000000000250028002B0000000000DE
:1000800023002600290004040404040404040202DA
:100090000202020203030303030301020408102007
:1000A0004080010204081020010204081020000012
:1000B0000007000201000003040600000000000029
:1000C00000006A0911241FBECFEFD8E0DEBFCDBF0C
:1000D00011E0A0E0B1E0E4E8F5E102C005900D9286
:1000E000A232B107D9F711E0A2E2B1E001C01D923E
:1000F000A23EB107E1F710E0C4ECD0E004C02297C3
:10010000FE010E94850AC23CD107C9F70E94BA09C4
:100110000C94C00A0C940000AEE0B0E0E2E9F0E01C
:100120000C94970A0D891E8986E08C831A830983B3
:100130008FEF9FE79E838D839E01275E3F4FCE0109
:1001400001966F89788DA9010E94B0002F813885B2
:10015000020F131FF80110822E96E4E00C94B30AEC
:10016000ABE0B0E0E6EBF0E00C94890A3C012B0137
:100170005A01FC0117821682838181FD03C06FEF53
:100180007FEFC6C19AE0892E1E010894211C311C04
:10019000F3012381F20123FD859123FF81912F013A
:1001A000882309F4B2C1853239F423FD859123FFF8
:1001B00081912F01853229F490E0B3010E94A302BE
:1001C000E7CF982FFF24EE249924FFE1FF15D0F00C
:1001D0009B3269F09C3228F4903259F0933291F4BA
:1001E0000EC09D3249F0903369F441E024C052E0E2
:1001F000F52A84E0F82A28C098E0F92A25C0E0E131
:10020000FE2A22C0F7FC29C0892F80538A3070F45F
:10021000F6FE05C0989C902C1124980E15C0E89C01
:10022000E02C1124E80EF0E2FF2A0EC09E3229F4E1
:10023000F6FC6BC140E4F42A07C09C3619F450E880
:10024000F52A02C0983649F4F20123FD959123FF67
:1002500091912F01992309F0B8CF892F85548330CC
:1002600018F08052833038F444E050E0A40EB51EFC
:100270005FE359830FC0933631F0933779F09335AC
:1002800009F056C020C0F5018081898342E050E02A
:10029000A40EB51E610101E010E012C0F501C0809E
:1002A000D180F6FC03C06FEF7FEF02C0692D70E0D4
:1002B00042E050E0A40EB51EC6010E9498028C01D7
:1002C0005FE7F52214C0F501C080D180F6FC03C0C1
:1002D0006FEF7FEF02C0692D70E042E050E0A40EA6
:1002E000B51EC6010E948D028C0150E8F52AF3FE6E
:1002F00007C01AC080E290E0B3010E94A302EA9412
:100300008E2D90E008171907A8F30EC0F601F7FC30
:100310008591F7FE81916F0190E0B3010E94A302E5
:10032000E110EA94015010400115110579F7EAC077
:10033000943611F0993669F5F7FE08C0F501208171
:1003400031814281538184E090E00AC0F5018081CF
:1003500091819C01442737FD4095542F82E090E025
:10036000A80EB91E9FE6F92257FF09C05095409587
:10037000309521953F4F4F4F5F4FE0E8FE2ACA016D
:10038000B901A1012AE030E00E94CF02D82ED21894
:1003900040C0953729F41F2D1F7E2AE030E01DC094
:1003A0001F2D197F9F3661F0903720F4983509F0A2
:1003B000ACC00FC0903739F0983709F0A6C004C020
:1003C00028E030E00AC0106114FD146020E130E044
:1003D00004C014FD166020E132E017FF08C0F501EB
:1003E000608171818281938144E050E008C0F50111
:1003F00080819181BC0180E090E042E050E0A40E59
:10040000B51EA1010E94CF02D82ED2188FE7F82E78
:10041000F122F6FE0BC05EEFF522D91438F4F4FE9B
:1004200007C0F2FC05C08FEEF82202C01D2D01C0EE
:10043000192DF4FE0DC0FE01ED0DF11D80818033FC
:1004400019F499EEF92208C01F5FF2FE05C003C03F
:100450008F2D867809F01F5F0F2DF3FC14C0F0FE7E
:100460000FC01E1510F09D2C0BC09D2C9E0C911AD8
:100470001E2D06C080E290E0B3010E94A3021F5F20
:100480001E15C0F304C01E1510F4E11A01C0EE24BD
:1004900004FF0FC080E390E0B3010E94A30202FFBB
:1004A0001DC001FD03C088E790E00EC088E590E024
:1004B0000BC0802F867891F001FF02C08BE201C053
:1004C00080E2F7FC8DE290E0B3010E94A30206C037
:1004D00080E390E0B3010E94A3029A94D914C0F380
:1004E000DA94F101ED0DF11D808190E0B3010E94DD
:1004F000A302DD20A9F706C080E290E0B3010E94CC
:10050000A302EA94EE20C1F743CEF301668177811E
:10051000CB012B96E2E10C94A50AFC0105906150F9
:1005200070400110D8F7809590958E0F9F1F089509
:10053000FC016150704001900110D8F780959095B2
:100540008E0F9F1F08950F931F93CF93DF938C01FE
:10055000EB018B8181FF1BC082FF0DC02E813F818B
:100560008C819D812817390764F4E881F981019312
:10057000F983E88306C0E885F985802F0995892BE2
:1005800031F48E819F8101969F838E8302C00FEF8D
:100590001FEFC801DF91CF911F910F910895FA01CC
:1005A000AA27283051F1203181F1E8946F936E7FB2
:1005B0006E5F7F4F8F4F9F4FAF4FB1E03ED0B4E0A3
:1005C0003CD0670F781F891F9A1FA11D680F791FE4
:1005D0008A1F911DA11D6A0F711D811D911DA11DF5
:1005E00020D009F468943F912AE0269F1124301905
:1005F000305D3193DEF6CF010895462F4770405DA0
:100600004193B3E00FD0C9F7F6CF462F4F70405D4E
:100610004A3318F0495D31FD4052419302D0A9F7A9
:10062000EACFB4E0A6959795879577956795BA95A3
:10063000C9F700976105710508959B01AC010A2E69
:1006400006945795479537952795BA95C9F7620F40
:10065000731F841F951FA01D08951F93CF93DF93D1
:10066000182FC0E0D0E017FF03C087E061E002C0B0
:1006700087E060E00E94040788E060E00E940407D1
:1006800088E061E00E9404072196C830D10511F08E
:10069000110FE9CF86E060E00E94040786E061E088
:1006A0000E940407DF91CF911F910895809122014C
:1006B0009091230182309105F1F08330910524F46B
:1006C000019709F04EC007C08330910529F10497C6
:1006D00009F047C034C082E061E00E940407E09165
:1006E0002401FF27E7FDF095E95FFE4F80810E941E
:1006F0002D0385E020C085E061E00E940407E091C1
:100700002501FF27E7FDF095E95FFE4F80818068B6
:100710000E942D0384E00FC084E061E00E94040782
:10072000E0912601FF27E7FDF095E95FFE4F80810C
:100730000E942D0383E060E00E940407089583E097
:1007400061E00E940407E0912701FF27E7FDF09593
:10075000E95FFE4F80810E942D0382E060E00E94ED
:1007600004070895809122019091230101969093AE
:10077000230180932201059731F481E090E090936A
:100780002301809322010E9456038CEC86BD0895BC
:10079000EF92FF920F931F93DF93CF93CDB7DEB706
:1007A00028970FB6F894DEBF0FBECDBF809105012C
:1007B00090910601892BB1F58AE090E090930601B3
:1007C000809305012091280130912901121613060A
:1007D00094F480912A0190912B01892B61F421508E
:1007E000304030932901209328018CE390E09093CE
:1007F0002B0180932A0120912A0130912B01215055
:10080000304030932B0120932A0180912801909150
:100810002901892B39F42130310521F48DE061E083
:100820000E94040780912801909129011816190649
:100830003CF080912A0190912B01181619064CF476
:100840008091050190910601019790930601809394
:1008500005018AE00E945807892B99F46AE070E04C
:1008600080E090E00E944A06809128019091290141
:10087000019690932901809328018DE060E00E9409
:10088000040789E00E945807892B11F56AE070E09F
:1008900080E090E00E944A0680912A0190912B010D
:1008A000019690932B0180932A01CC976CF0809154
:1008B00028019091290101969093290180932801A4
:1008C00010922B0110922A018DE060E00E94040733
:1008D00089E00E945807892BD9F48AE00E945807C2
:1008E000892BB1F4109229011092280110922B014A
:1008F00010922A018DE061E00E94040764EF71E02C
:1009000080E090E00E944A068DE060E00E940407CB
:1009100000D000D000D0EDB7FEB731967E0108942C
:10092000E11CF11CADB7BEB71296FC92EE92119786
:1009300000E011E013830283809128019091290146
:10094000958384830E948C00EDB7FEB73196CE016B
:100950000596ADB7BEB712969C938E9311971383ED
:10096000028380912A0190912B01958384830E94B8
:100970008C008DB79EB706960FB6F8949EBF0FBE3B
:100980008DBF83EC91E0B7010E94270A89818F70A7
:10099000809324018A818F70809325018D818F70CF
:1009A000809326018E818F708093270164E670E02A
:1009B00080E090E00E944A0628960FB6F894DEBFC9
:1009C0000FBECDBFCF91DF911F910F91FF90EF90A0
:1009D00008950F931F9383EC91E040E855E260E0A7
:1009E00070E00E943C0887E061E00E94DE0688E03B
:1009F00061E00E94DE0686E061E00E94DE0685E09E
:100A000061E00E94DE0684E061E00E94DE0683E091
:100A100061E00E94DE0682E061E00E94DE068DE079
:100A200061E00E94DE068DE060E00E9404078AE03B
:100A300060E00E94DE0689E060E00E94DE068AE057
:100A400061E00E94040789E061E00E9404071092BF
:100A50002301109222010CE211E0C80140E157E2AB
:100A600060E070E00E94DB05C80162EB73E02FEFED
:100A70003FEF4FEF5FEF0E94E3051F910F91089545
:100A80001F920F920FB60F9211242F933F934F9303
:100A90005F936F937F938F939F93AF93BF93EF93E6
:100AA000FF93E0913001F09131010995FF91EF91B1
:100AB000BF91AF919F918F917F916F915F914F9176
:100AC0003F912F910F900FBE0F901F901895FC0132
:100AD000A3E0440F551F661F771FAA95D1F740303A
:100AE00080E0580781E0680780E0780714F481E02F
:100AF00010C033E075956795579547953A95D1F7AE
:100B0000403080E0580781E0680780E078071CF4F7
:100B100082E0828339C023E07595679557954795A4
:100B20002A95D1F7403080E0580781E0680780E0DF
:100B3000780714F483E0EDCF92E0759567955795AB
:100B400047959A95D1F7403080E0580781E06807D3
:100B500080E0780714F484E0DCCF82E07595679537
:100B6000579547958A95D1F7403080E0580781E046
:100B7000680780E0780714F485E0CBCF85E08283B6
:100B80004FEF5FEF60E070E08FB78383F89451839D
:100B90004083509387004093860083818FBF80916C
:100BA0008100887F80938100809181009281892BD0
:100BB0008093810008951092800020E120938100AD
:100BC0000E94670508950F931F93CF93DF93EC0165
:100BD0008B01121613061406150624F4BA01A90196
:100BE0000E9467051D830C8381E080936F008091D4
:100BF00081009A81892B80938100DF91CF911F9191
:100C00000F9108951F920F920FB60F9211242F93F8
:100C10003F938F939F93AF93BF93809136019091B1
:100C20003701A0913801B091390130913A01019614
:100C3000A11DB11D232F2D5F2D3720F02D570196BB
:100C4000A11DB11D20933A01809336019093370185
:100C5000A0933801B0933901809132019091330112
:100C6000A0913401B09135010196A11DB11D809371
:100C7000320190933301A0933401B0933501BF91B9
:100C8000AF919F918F913F912F910F900FBE0F9039
:100C90001F9018959B01AC017FB7F89480913201A9
:100CA00090913301A0913401B091350166B5A89BB4
:100CB00005C06F3F19F00196A11DB11D7FBFBA2F6E
:100CC000A92F982F8827860F911DA11DB11D62E0C5
:100CD000880F991FAA1FBB1F6A95D1F7BC012DC0B1
:100CE000FFB7F8948091320190913301A0913401C3
:100CF000B0913501E6B5A89B05C0EF3F19F001960C
:100D0000A11DB11DFFBFBA2FA92F982F88278E0FC5
:100D1000911DA11DB11DE2E0880F991FAA1FBB1FE5
:100D2000EA95D1F7861B970B885E9340C8F2215055
:100D300030404040504068517C4F211531054105FD
:100D4000510571F60895789484B5826084BD84B5A8
:100D5000816084BD85B5826085BD85B5816085BDB6
:100D6000EEE6F0E0808181608083E1E8F0E01082CF
:100D7000808182608083808181608083E0E8F0E010
:100D8000808181608083E1EBF0E0808184608083FA
:100D9000E0EBF0E0808181608083EAE7F0E0808131
:100DA0008460808380818260808380818160808391
:100DB0008081806880831092C1000895482F50E0A0
:100DC000CA0186569F4FFC0124914A575F4FFA0192
:100DD00084918823C1F0E82FF0E0EE0FFF1FE8595F
:100DE000FF4FA591B491662341F49FB7F8948C917D
:100DF000209582238C939FBF08959FB7F8948C9180
:100E0000822B8C939FBF0895482F50E0CA018255D2
:100E10009F4FFC012491CA0186569F4FFC0194917B
:100E20004A575F4FFA013491332309F440C022231B
:100E300051F1233071F0243028F42130A1F0223018
:100E400011F514C02630B1F02730C1F02430D9F4A8
:100E500004C0809180008F7703C0809180008F7DD7
:100E60008093800010C084B58F7702C084B58F7DD9
:100E700084BD09C08091B0008F7703C08091B0001D
:100E80008F7D8093B000E32FF0E0EE0FFF1FEE5850
:100E9000FF4FA591B4912FB7F894662321F48C915C
:100EA0009095892302C08C91892B8C932FBF089534
:100EB000682F70E0CB0182559F4FFC012491CB013C
:100EC00086569F4FFC0144916A577F4FFB019491D6
:100ED000992319F420E030E03CC0222351F1233063
:100EE00071F0243028F42130A1F0223011F514C023
:100EF0002630B1F02730C1F02430D9F404C08091FD
:100F000080008F7703C0809180008F7D8093800068
:100F100010C084B58F7702C084B58F7D84BD09C0B1
:100F20008091B0008F7703C08091B0008F7D809357
:100F3000B000892F90E0880F991F84589F4FFC01C3
:100F4000A591B4918C9120E030E0842311F021E050
:100F500030E0C901089508951F920F920FB60F92C5
:100F600011242F933F934F938F939F93EF93FF936E
:100F70004091C60020917B0130917C012F5F3F4F53
:100F80002F73307080917D0190917E012817390771
:100F900059F0E0917B01F0917C01E55CFE4F4083CC
:100FA00030937C0120937B01FF91EF919F918F9172
:100FB0004F913F912F910F900FBE0F901F9018955A
:100FC000E091CF01F091D001E05CFF4F81919191D0
:100FD00020813181821B930B8F739070892B11F0CC
:100FE0000E94AB0708951F920F920FB60F92112423
:100FF0002F933F934F935F936F937F938F939F9321
:10100000AF93BF93EF93FF932091BF013091C00145
:101010008091C1019091C2012817390731F4809164
:10102000C1008F7D8093C10016C0E091C101F09195
:10103000C201E158FE4F40818091C1019091C201EF
:10104000019660E470E00E943A0A9093C201809396
:10105000C1014093C600FF91EF91BF91AF919F9165
:101060008F917F916F915F914F913F912F910F9051
:101070000FBE0F901F901895AF92BF92DF92EF9224
:10108000FF920F931F93CF93DF93EC017A018B01B3
:10109000DD24403081EE580780E0680780E0780763
:1010A00011F0DD24D39491E0A92EB12CEC89FD89B7
:1010B000DD2069F0C5010E8C02C0880F991F0A94CB
:1010C000E2F7808360E079E08DE390E005C0108274
:1010D00060E874E88EE190E0A80197010E944D0A53
:1010E00021503040404050405695479537952795C0
:1010F00080E12030380720F0DD2011F0DD24D6CF4C
:10110000E889F9893083EA89FB892083EE89FF89A0
:10111000408121E030E0C9010A8C02C0880F991F8C
:101120000A94E2F7482B4083EE89FF894081C90188
:101130000B8C02C0880F991F0A94E2F7482B40835A
:10114000EE89FF894081C9010C8C02C0880F991F6C
:101150000A94E2F7482B4083EE89FF8980810D8C49
:1011600002C0220F331F0A94E2F720952823208320
:10117000DF91CF911F910F91FF90EF90DF90BF9083
:10118000AF900895DC011C96ED91FC911D97E05CF9
:10119000FF4F2191319180819181281B390B2F7351
:1011A0003070C9010895DC011C96ED91FC911D97EA
:1011B000E05CFF4F20813181E054F040DF01AE5B05
:1011C000BF4F8D919C9111972817390719F42FEF74
:1011D0003FEF07C08D919C91E80FF91F8081282F68
:1011E00030E0C9010895DC011C96ED91FC911D973A
:1011F000E05CFF4F20813181E054F040DF01AE5BC5
:10120000BF4F8D919C9111972817390719F42FEF33
:101210003FEF10C08D919C911197E80FF91F20812D
:101220008D919C91119701968F73907011969C935C
:101230008E9330E0C9010895FC0186859785DC0115
:10124000A05CBF4FFC01EE5BFF4F2D913C911197CD
:101250008081918128173907C1F70895CF93DF93D3
:10126000EC01462FEE85FF85E05CFF4F8081918188
:10127000E054F040019660E470E00E943A0A9C015C
:10128000DF01AE5BBF4F8D919C91119728173907F5
:10129000D1F3E05CFF4F80819181E054F040E80F92
:1012A000F91F4083EE85FF85E05CFF4F318320838B
:1012B000EE89FF89208181E090E00D8C02C0880FCB
:1012C000991F0A94E2F7282B208381E090E0DF91B8
:1012D000CF9108951092C6011092C50188EE93E057
:1012E000A0E0B0E08093C7019093C801A093C9012A
:1012F000B093CA0185E191E09093C4018093C3014A
:101300008BE391E09093D0018093CF018FE791E040
:101310009093D2018093D10185EC90E09093D40119
:101320008093D30184EC90E09093D6018093D50113
:1013300080EC90E09093D8018093D70181EC90E00D
:101340009093DA018093D90186EC90E09093DC01D0
:101350008093DB0184E08093DD0183E08093DE01F4
:1013600087E08093DF0185E08093E00181E0809356
:10137000E1010895CF93DF930E94A3060E94E90440
:10138000C0EED7E00E94C8032097E1F30E94E00777
:10139000F9CFCF92DF92EF92FF920F931F93CF93EB
:1013A000DF937C016B018A01C0E0D0E00FC0D60161
:1013B0006D916D01D701ED91FC910190F081E02DCF
:1013C000C7010995C80FD91F01501040011511051B
:1013D00071F7CE01DF91CF911F910F91FF90EF90A8
:1013E000DF90CF900895EF92FF920F931F938C019F
:1013F000DC01ED91FC910190F081E02D6DE009950B
:101400007C01D801ED91FC910190F081E02DC801A3
:101410006AE009959C012E0D3F1DC9011F910F9196
:10142000FF90EF900895CF93DF93DB010D900020A4
:10143000E9F71197A61BB70BEC01E881F98102804F
:10144000F381E02DAD010995DF91CF910895EF92E1
:10145000FF920F931F937C010E94130A8C01C70116
:101460000E94F309080F191FC8011F910F91FF90E7
:10147000EF90089597FB092E07260AD077FD04D038
:101480002ED006D000201AF4709561957F4F0895F4
:10149000F6F7909581959F4F0895A1E21A2EAA1B09
:1014A000BB1BFD010DC0AA1FBB1FEE1FFF1FA21714
:1014B000B307E407F50720F0A21BB30BE40BF50B11
:1014C000661F771F881F991F1A9469F7609570959A
:1014D000809590959B01AC01BD01CF010895AA1B99
:1014E000BB1B51E107C0AA1FBB1FA617B70710F00F
:1014F000A61BB70B881F991F5A95A9F78095909541
:10150000BC01CD010895EE0FFF1F0590F491E02D71
:1015100009942F923F924F925F926F927F928F9297
:101520009F92AF92BF92CF92DF92EF92FF920F9372
:101530001F93CF93DF93CDB7DEB7CA1BDB0B0FB67C
:10154000F894DEBF0FBECDBF09942A883988488839
:101550005F846E847D848C849B84AA84B984C884CF
:10156000DF80EE80FD800C811B81AA81B981CE0FC6
:10157000D11D0FB6F894DEBF0FBECDBFED010895AB
:04158000F894FFCF0D
:1015840025303264000A003F065B4F666D7D077F9D
:101594006F000000002E09C909C208F308D3081C13
:0215A40009003C
:00000001FF
