:100000000C9463000C948B000C948B000C948B006C
:100010000C948B000C948B000C948B000C948B0034
:100020000C948B000C948B000C948B000C948B0024
:100030000C948B000C948B000C948B000C948B0014
:100040000C947B030C948B000C9479050C94C005E4
:100050000C948B000C948B000C948B000C948B00F4
:100060000C948B000C948B000000000024002700EF
:100070002A0000000000250028002B0000000000DE
:1000800023002600290004040404040404040202DA
:100090000202020203030303030301020408102007
:1000A0004080010204081020010204081020000012
:1000B0000007000201000003040600000000000029
:1000C00000008D00370711241FBECFEFD8E0DEBF40
:1000D000CDBF11E0A0E0B1E0EAE9F4E102C0059093
:1000E0000D92AC33B107D9F712E0ACE3B1E001C037
:1000F0001D92AD30B107E1F710E0C6ECD0E004C0CE
:100100002297FE010E94470AC23CD107C9F70E940C
:1001100087070C944B0A0C940000CF92EF920F9338
:100120008CE391E069E048E027E006E055E0E52E49
:1001300034E0C32E0E9442030F91EF90CF900895B8
:10014000EF92FF920F931F938091170160E00E943E
:10015000870485E090E00E941C048091170161E013
:100160000E9487048AE090E00E941C04809117019D
:1001700060E00E9487048091190160E00E946104A0
:100180008091190161E020E432E44FE050E00E94E8
:10019000DB04162F072FF82EE92E60935101709380
:1001A0005201809353019093540122E030E040E0EB
:1001B00050E00E94160ACA01B9010E9436092DECCE
:1001C0003CEC48EE51E40E949B080E9403096093B6
:1001D0005501709356018093570190935801612FF8
:1001E000702F8F2D9E2D24E930E040E050E00E94DA
:1001F000160A2093590130935A0140935B015093A2
:100200005C010CE311E0C80160E040E00E9455028F
:10021000C80160E071E00E94980840915901509136
:100220005A0160915B0170915C01C8012AE030E0E5
:100230000E945808C80168E071E00E949808C8014F
:1002400060E041E00E945502C8016BE071E00E944D
:100250009808409155015091560160915701709155
:100260005801C8012AE030E00E9458086FE0E62EED
:1002700061E0F62EC801B7010E9498080EEE11E069
:100280004091590150915A0160915B0170915C015C
:10029000C8012AE030E00E945808C80162E171E01C
:1002A0000E94980840915501509156016091570164
:1002B00070915801C8012AE030E00E945808C80136
:1002C000B7010E949808C8010E94C0076AEF70E059
:1002D00080E090E00E94C3031F910F91FF90EF9088
:1002E00008958EEE91E040E855E260E070E00E94F3
:1002F00009068091170161E00E9461048091190153
:1003000060E00E9461048CE391E060E142E020E063
:100310000E948C0208950F931F938C01FC0186812B
:1003200060E00E94870481E090E00E941C04F801D4
:10033000868161E00E94870481E090E00E941C04B5
:10034000F801868160E00E94870484E690E00E94C4
:100350001C041F910F910895CF92DF92EF92FF92AC
:100360000F931F93CF93DF93D82EC92E282F392FA9
:10037000C9018C01C0E0D0E0E62EFF24F80187819E
:1003800061E00E946104B7010C2E02C0759567956B
:100390000A94E2F76170F80187810E948704219630
:1003A0000F5F1F4FC830D10549F78D2D9C2D0E943E
:1003B0008B01DF91CF911F910F91FF90EF90DF9014
:1003C000CF900895CF92DF92EF92FF920F931F93F9
:1003D000CF93DF93D82EC92E282F392FC9018C0136
:1003E000C0E0D0E0E62EFF24F801878161E00E94A2
:1003F0006104B7010C2E02C0759567950A94E2F767
:100400006170F80187810E94870421960F5F1F4F5A
:10041000C430D10549F78D2D9C2D0E948B01DF91B1
:10042000CF911F910F91FF90EF90DF90CF900895A3
:100430001F93CF93DF93EC01162F8C81642F0E94C2
:1004400087048D818F3F19F060E00E9487048F85BB
:1004500084FF05C0CE01612F0E94AC010EC0612F48
:1004600070E084E0759567958A95E1F7CE010E946A
:10047000E201CE01612F0E94E201DF91CF911F9135
:10048000089541E00E94180281E090E0089540E064
:100490000E9418020895FC016089862F8460808B79
:1004A0006C60CF010E9447020895DF93CF93CDB7D0
:1004B000DEB728970FB6F894DEBF0FBECDBF9C0104
:1004C000FE013196A3E2B1E088E00D9001928150E7
:1004D000E1F7F9018389481710F0482F4150E42FC4
:1004E000F0E0EE0FFF1FEC0FFD1F8181680F6068C9
:1004F000C9010E94470228960FB6F894DEBF0FBECE
:10050000CDBFCF91DF91089561E00E94470280ED59
:1005100097E00E941C040895CF93DF93EC014230D2
:1005200018F08F8588608F874B8B1C8A222329F0D7
:10053000413019F48F8584608F8780E593EC0E94A9
:100540001C048C8160E00E9487048E8160E00E9420
:1005500087048D818F3F19F060E00E9487046F85CA
:1005600064FD1DC0CE0163E00E94E20184E991E1D7
:100570000E941C04CE0163E00E94E20184E991E143
:100580000E941C04CE0163E00E94E20186E990E033
:100590000E941C04CE0162E00E94E20116C060626B
:1005A000CE010E94470284E991E10E941C046F85FC
:1005B0006062CE010E94470286E990E00E941C041E
:1005C0006F856062CE010E9447026F856062CE0136
:1005D0000E94470284E0888BCE010E944B02CE012C
:1005E0000E94840282E0898BCE0166E00E9447026D
:1005F000DF91CF9108956F927F928F92AF92CF92B9
:10060000EF920F931F93DF93CF93CDB7DEB73C01EB
:10061000162F842FF301448325830683E782C08647
:10062000A18682869D8593879E8594879F859587E1
:100630009889968761E00E946104F30185818F3F6C
:1006400019F061E00E946104F301868161E00E947B
:100650006104112319F0F301178603C080E1F3014F
:100660008787C30160E141E020E00E948C02CF91C6
:10067000DF911F910F91EF90CF90AF908F907F906F
:100680006F9008958F92AF92CF92EF920F931F9336
:10069000CF93DF93DC01362F542F722F102FAE2C07
:1006A0008C2C13961C921E9212978FE191E011965A
:1006B0009C938E9300D000D0EDB7FEB73196CDB7A6
:1006C000DEB71982118212821382CD0161E0432FBD
:1006D0002FEF052FE72EC12E0E94FB020F900F90E7
:1006E0000F900F90DF91CF911F910F91EF90CF90CE
:1006F000AF908F9008951F920F920FB60F92112412
:100700002F933F938F939F93AF93BF9380916101FA
:1007100090916201A0916301B091640130916501F3
:100720000196A11DB11D232F2D5F2D3720F02D57D0
:100730000196A11DB11D20936501809361019093E5
:100740006201A0936301B093640180915D01909177
:100750005E01A0915F01B09160010196A11DB11DE4
:1007600080935D0190935E01A0935F01B09360015F
:10077000BF91AF919F918F913F912F910F900FBE9D
:100780000F901F9018959B01AC017FB7F894809152
:100790005D0190915E01A0915F01B091600166B52D
:1007A000A89B05C06F3F19F00196A11DB11D7FBF29
:1007B000BA2FA92F982F8827860F911DA11DB11D33
:1007C00062E0880F991FAA1FBB1F6A95D1F7BC0171
:1007D0002DC0FFB7F89480915D0190915E01A091CA
:1007E0005F01B0916001E6B5A89B05C0EF3F19F02D
:1007F0000196A11DB11DFFBFBA2FA92F982F8827E1
:100800008E0F911DA11DB11DE2E0880F991FAA1F37
:10081000BB1FEA95D1F7861B970B885E9340C8F201
:10082000215030404040504068517C4F21153105E7
:100830004105510571F60895019739F0880F991F08
:10084000880F991F02970197F1F70895789484B55E
:10085000826084BD84B5816084BD85B5826085BDBC
:1008600085B5816085BDEEE6F0E0808181608083A2
:10087000E1E8F0E010828081826080838081816085
:100880008083E0E8F0E0808181608083E1EBF0E04C
:10089000808184608083E0EBF0E0808181608083F0
:1008A000EAE7F0E0808184608083808182608083D9
:1008B0008081816080838081806880831092C10004
:1008C0000895482F50E0CA0186569F4FFC0124919D
:1008D0004A575F4FFA0184918823C1F0E82FF0E076
:1008E000EE0FFF1FE859FF4FA591B491662341F425
:1008F0009FB7F8948C91209582238C939FBF089585
:100900009FB7F8948C91822B8C939FBF0895482FAA
:1009100050E0CA0182559F4FFC012491CA018656BE
:100920009F4FFC0194914A575F4FFA013491332352
:1009300009F440C0222351F1233071F0243028F40F
:100940002130A1F0223011F514C02630B1F027304B
:10095000C1F02430D9F404C0809180008F7703C0A7
:10096000809180008F7D8093800010C084B58F7748
:1009700002C084B58F7D84BD09C08091B0008F779F
:1009800003C08091B0008F7D8093B000E32FF0E032
:10099000EE0FFF1FEE58FF4FA591B4912FB7F894BB
:1009A000662321F48C919095892302C08C91892B28
:1009B0008C932FBF08958F929F92AF92BF92CF9248
:1009C000DF92EF92FF920F931F93CF93DF93A82FA5
:1009D000B0E0CD0186569F4FFC018490AA57BF4FCF
:1009E000FD01D490662311F4992401C0982CCA010A
:1009F000B90120E83EE340E050E00E94C2090E94B5
:100A0000F40979018A016D2D70E0660F771F645833
:100A10007F4FAA24BB246501FB01A591B4910BC0B3
:100A2000AE14BF04C006D10609F44FC00894A11C3F
:100A3000B11CC11CD11C8C918821891589F30CC073
:100A4000AE14BF04C006D10609F43FC00894A11C2F
:100A5000B11CC11CD11C03C0FB01A591B4918C91A8
:100A60008821891569F720E030E040E050E0FB0183
:100A7000C591D4910FC0DA01C9018A0D9B1DAC1D2F
:100A8000BD1D8E159F05A007B107F9F02F5F3F4FE1
:100A90004F4F5F4F88818821891569F3CA01B901D9
:100AA00028E032E540E050E00E94C2096058714CF5
:100AB0008F4F9F4F20E83EE340E050E00E94F40952
:100AC000C901DA019C01AD0104C020E030E040E042
:100AD00050E0B901CA01DF91CF911F910F91FF90B2
:100AE000EF90DF90CF90BF90AF909F908F90089540
:100AF00008951F920F920FB60F9211242F933F93D8
:100B00004F938F939F93EF93FF934091C600209153
:100B1000A6013091A7012F5F3F4F2F733070809156
:100B2000A8019091A9012817390759F0E091A60171
:100B3000F091A701EA59FE4F40833093A70120931B
:100B4000A601FF91EF919F918F914F913F912F912E
:100B50000F900FBE0F901F901895E091FA01F09141
:100B6000FB01E05CFF4F8191919120813181821BDB
:100B7000930B8F739070892B11F00E947805089564
:100B80001F920F920FB60F9211242F933F934F9302
:100B90005F936F937F938F939F93AF93BF93EF93E5
:100BA000FF932091EA013091EB018091EC0190914B
:100BB000ED012817390731F48091C1008F7D8093B2
:100BC000C10016C0E091EC01F091ED01E655FE4F39
:100BD00040818091EC019091ED01019660E470E01C
:100BE0000E94E1099093ED018093EC014093C600CF
:100BF000FF91EF91BF91AF919F918F917F916F91F5
:100C00005F914F913F912F910F900FBE0F901F90CA
:100C10001895AF92BF92DF92EF92FF920F931F93BE
:100C2000CF93DF93EC017A018B01DD24403081EE1C
:100C3000580780E0680780E0780711F0DD24D3943E
:100C400091E0A92EB12CEC89FD89DD2069F0C50168
:100C50000E8C02C0880F991F0A94E2F7808360E02F
:100C600079E08DE390E005C0108260E874E88EE1E1
:100C700090E0A80197010E94F409215030404040C3
:100C80005040569547953795279580E12030380795
:100C900020F0DD2011F0DD24D6CFE889F9893083FA
:100CA000EA89FB892083EE89FF89408121E030E0D9
:100CB000C9010A8C02C0880F991F0A94E2F7482BD9
:100CC0004083EE89FF894081C9010B8C02C0880FE7
:100CD000991F0A94E2F7482B4083EE89FF894081EF
:100CE000C9010C8C02C0880F991F0A94E2F7482BA7
:100CF0004083EE89FF8980810D8C02C0220F331F53
:100D00000A94E2F7209528232083DF91CF911F9149
:100D10000F91FF90EF90DF90BF90AF900895DC01AE
:100D20001C96ED91FC911D97E05CFF4F2191319154
:100D300080819181281B390B2F733070C901089570
:100D4000DC011C96ED91FC911D97E05CFF4F20812A
:100D50003181E054F040DF01AE5BBF4F8D919C913B
:100D600011972817390719F42FEF3FEF07C08D911E
:100D70009C91E80FF91F8081282F30E0C901089568
:100D8000DC011C96ED91FC911D97E05CFF4F2081EA
:100D90003181E054F040DF01AE5BBF4F8D919C91FB
:100DA00011972817390719F42FEF3FEF10C08D91D5
:100DB0009C911197E80FF91F20818D919C911197BB
:100DC00001968F73907011969C938E9330E0C901B9
:100DD0000895FC0186859785DC01A05CBF4FFC016E
:100DE000EE5BFF4F2D913C911197808191812817E7
:100DF0003907C1F70895CF93DF93EC01462FEE85B5
:100E0000FF85E05CFF4F80819181E054F0400196C6
:100E100060E470E00E94E1099C01DF01AE5BBF4F1E
:100E20008D919C91119728173907D1F3E05CFF4F02
:100E300080819181E054F040E80FF91F4083EE85F6
:100E4000FF85E05CFF4F31832083EE89FF8920819D
:100E500081E090E00D8C02C0880F991F0A94E2F7A0
:100E6000282B208381E090E0DF91CF9108951092AC
:100E7000F1011092F00188EE93E0A0E0B0E08093E1
:100E8000F2019093F301A093F401B093F5018FE286
:100E900091E09093EF018093EE0186E691E09093CC
:100EA000FB018093FA018AEA91E09093FD0180931F
:100EB000FC0185EC90E09093FF018093FE0184ECAF
:100EC00090E0909301028093000280EC90E0909378
:100ED00003028093020281EC90E0909305028093DC
:100EE000040286EC90E0909307028093060284E06F
:100EF0008093080283E08093090287E080930A02CE
:100F000085E080930B0281E080930C020895CF93DB
:100F1000DF930E9426040E947101CDEAD5E00E9471
:100F2000A0002097E1F30E94AD05F9CFCF92DF92A8
:100F3000EF92FF920F931F93CF93DF937C016B018E
:100F40008A01C0E0D0E00FC0D6016D916D01D701DC
:100F5000ED91FC910190F081E02DC7010995C80F3A
:100F6000D91F015010400115110571F7CE01DF9115
:100F7000CF911F910F91FF90EF90DF90CF90089548
:100F8000EF92FF920F931F938C01DC01ED91FC9186
:100F90000190F081E02D6DE009957C01D801ED9183
:100FA000FC910190F081E02DC8016AE009959C0157
:100FB0002E0D3F1DC9011F910F91FF90EF900895D5
:100FC000CF93DF93DB010D900020E9F71197A61B6B
:100FD000B70BEC01E881F9810280F381E02DAD01CE
:100FE0000995DF91CF9108954F925F927F928F92F2
:100FF0009F92AF92BF92CF92DF92EF92FF920F93A8
:101000001F93DF93CF93CDB7DEB7A1970FB6F894B8
:10101000DEBF0FBECDBF2C01742ECB01223008F4F1
:101020002AE019A231E2C32ED12CCC0EDD1E822E75
:101030009924AA24BB24672D752FA50194010E9431
:10104000F40979018A01C801B701A50194010E9440
:10105000C209472D461B0894C108D1084A3014F430
:10106000405D01C0495CF6014083E114F1040105D3
:10107000110521F07E2C5F2DC801DDCFC201B60124
:101080000E94E007A1960FB6F894DEBF0FBECDBF59
:10109000CF91DF911F910F91FF90EF90DF90CF9054
:1010A000BF90AF909F908F907F905F904F900895EA
:1010B000CF92DF92EF92FF920F931F93CF93DF9324
:1010C000EC016A017B012115310541F4E881F981C8
:1010D0000190F081E02D642F09951FC02A30310561
:1010E000D1F477FF17C0E881F9810190F081E02DFC
:1010F0006DE209958C0144275527BA014C195D0909
:101100006E097F09CE012AE00E94F4079801280F9A
:10111000391F04C02AE00E94F4079C01C901DF9135
:10112000CF911F910F91FF90EF90DF90CF90089596
:101130000E94E00708950CD0EBC0E3D040F0DAD075
:1011400030F021F45F3F19F0CCC0511115C1CFC070
:10115000F0D098F39923C9F35523B1F3951B550BA0
:10116000BB27AA2762177307840738F09F5F5F4F7A
:10117000220F331F441FAA1FA9F333D00E2E3AF0BB
:10118000E0E830D091505040E695001CCAF729D0D5
:10119000FE2F27D0660F771F881FBB1F2617370724
:1011A0004807AB07B0E809F0BB0B802DBF01FF2754
:1011B00093585F4F2AF09E3F510568F092C0DCC003
:1011C0005F3FECF3983EDCF3869577956795B7958E
:1011D000F7959F5FC9F7880F911D9695879597F9A9
:1011E0000895E1E0660F771F881FBB1F6217730722
:1011F0008407BA0720F0621B730B840BBA0BEE1F37
:1012000088F7E095089504D06894B111B5C00895A9
:1012100098D088F09F5790F0B92F9927B751A0F038
:10122000D1F0660F771F881F991F1AF0BA95C9F77A
:1012300012C0B13081F09FD0B1E008959CC0672FFB
:10124000782F8827B85F39F0B93FCCF3869577952A
:101250006795B395D9F73EF4909580957095619513
:101260007F4F8F4F9F4F0895E89409C097FB3EF43E
:1012700090958095709561957F4F8F4F9F4F9923E3
:10128000A9F0F92F96E9BB279395F6958795779561
:101290006795B795F111F8CFFAF4BB0F11F460FF21
:1012A0001BC06F5F7F4F8F4F9F4F16C0882311F079
:1012B00096E911C0772321F09EE8872F762F05C08D
:1012C000662371F096E8862F70E060E02AF09A9528
:1012D000660F771F881FDAF7880F9695879597F91D
:1012E000089597F99F6780E870E060E008959FEFA8
:1012F00080EC089500240A941616170618060906AD
:10130000089500240A94121613061406050608957B
:10131000092E0394000C11F4882352F0BB0F40F403
:10132000BF2B11F460FF04C06F5F7F4F8F4F9F4F43
:10133000089557FD9058440F551F59F05F3F71F0C5
:101340004795880F97FB991F61F09F3F79F087952C
:101350000895121613061406551FF2CF4695F1DFB5
:1013600008C0161617061806991FF1CF8695710545
:10137000610508940895E894BB2766277727CB0179
:1013800097F90895629FD001739FF001829FE00D4D
:10139000F11D649FE00DF11D929FF00D839FF00DF4
:1013A000749FF00D659FF00D9927729FB00DE11DA0
:1013B000F91F639FB00DE11DF91FBD01CF0111247D
:1013C000089597FB092E07260AD077FD04D049D04F
:1013D00006D000201AF4709561957F4F0895F6F7B6
:1013E000909581959F4F0895A1E21A2EAA1BBB1BD1
:1013F000FD010DC0AA1FBB1FEE1FFF1FA217B307E1
:10140000E407F50720F0A21BB30BE40BF50B661FF6
:10141000771F881F991F1A9469F7609570958095BA
:1014200090959B01AC01BD01CF01089597FB092E5A
:1014300005260ED057FD04D0D7DF0AD0001C38F4A3
:1014400050954095309521953F4F4F4F5F4F0895F0
:10145000F6F790958095709561957F4F8F4F9F4FD0
:101460000895AA1BBB1B51E107C0AA1FBB1FA617EB
:10147000B70710F0A61BB70B881F991F5A95A9F73D
:1014800080959095BC01CD010895EE0FFF1F05904A
:0A149000F491E02D0994F894FFCFC9
:10149A00496E636865733A00696E00436D3A00638A
:1014AA006D00696E2C20000300020000000000415C
:1014BA00029607000040001000500000000000FBE8
:0C14CA000696078F06C006A006E9060083
:00000001FF
