:100000000C9462000C948A000C948A000C948A0070
:100010000C948A000C948A000C948A000C948A0038
:100020000C948A000C948A000C948A000C948A0028
:100030000C948A000C948A000C948A000C948A0018
:100040000C94B1060C948A000C948A000C948A00DB
:100050000C948A000C948A000C948A000C948A00F8
:100060000C948A000C948A000000000024002700F1
:100070002A0000000000250028002B0000000000DE
:1000800023002600290004040404040404040202DA
:100090000202020203030303030301020408102007
:1000A0004080010204081020010204081020000012
:1000B0000007000201000003040600000000000029
:1000C00000008C0011241FBECFEFD8E0DEBFCDBFF3
:1000D00011E0A0E0B1E0E4EAF1E102C005900D9288
:1000E000A838B107D9F712E0A8E8B1E001C01D9225
:1000F000AA31B107E1F710E0C4ECD0E004C02297C8
:10010000FE010E94CC08C23CD107C9F70E947208C8
:100110000C94D0080C940000CF92EF920F9388E8D3
:1001200091E069E048E027E006E0A5E0EA2EF4E08F
:10013000CF2E0E9478068DE991E065E571E045E6F5
:1001400051E029E631E004E0E4E0EE2E0E943204C2
:100150000F91EF90CF9008950F931F9308E811E04F
:10016000C80160E041E00E948B05C80160E071E0D9
:100170000E94C7086CED75E080E090E00E940707E0
:10018000C80160E041E00E948B05C80161E171E0B7
:100190000E94C708C80160E041E00E948B051092F0
:1001A0000C028BE061E00E94CB078AE060E00E94D5
:1001B000CB078CE060E00E94CB071F910F91089560
:1001C0001F938DE991E00E941404182F8823F1F009
:1001D00080910C028430BCF41D33C1F0133409F457
:1001E00057C088E891E06AE20E94AB0880910C0257
:1001F000E82FFF27E7FDF095E35FFD4F10838F5F4A
:1002000080930C0203C0133409F442C01D3309F07B
:1002100041C080910D02813349F580910E028233F5
:1002200029F580910F02833309F580911002843300
:10023000E9F48BE060E00E94CB078AE061E00E9475
:10024000CB078CE061E00E94CB0788E891E060E09A
:1002500041E00E948B0588E891E062E271E00E9433
:10026000C70860EA7FE080E090E010C088E891E095
:1002700060E041E00E948B0588E891E063E371E073
:100280000E94C7086CED75E080E090E00E940707CF
:100290000E94AC001F9108950F931F938AE061E0C4
:1002A0000E94CB078AE061E00E94A5078BE061E035
:1002B0000E94CB078BE061E00E94A5078CE061E023
:1002C0000E94CB078CE061E00E94A50708E811E0DE
:1002D000C80160E142E020E00E94C205C80164E478
:1002E00071E00E94C708C80160E041E00E948B05F0
:1002F000C8010E9477058BE061E00E94CB078AE08D
:1003000060E00E94CB078CE060E00E94CB071F9169
:100310000F9108952F923F924F925F926F927F922A
:100320008F929F92AF92BF92CF92DF92EF92FF9205
:100330000F931F93DF93CF9300D000D0CDB7DEB7DC
:100340009C838B8300E066E6A62EB12CA80EB91E16
:1003500052E6C52ED12CC80ED91E13C0AB81BC816C
:100360008D919C91F601A081B181A00FB11DFC017E
:10037000208131818B819C816C9142E0F90109954A
:100380000F5FD5018C91081748F3EE24EB81FC81B7
:10039000E959FF4FFA83E98344E6A42EB12C8B81FF
:1003A0009C81A80EB91E36E6232E312C280E391E4C
:1003B00022E6422E512C480E591E92C0CE2CDD242E
:1003C000AB81BC818D919C91D501ED91FC91EC0D9F
:1003D000FD1DDC012D913C918B819C81608141E070
:1003E000F9010995EB81FC8180819181D501ED9125
:1003F000FC91EC0DFD1DDC0112962D913C911397A3
:100400008B819C81608140E0F901099581E090E059
:10041000A0E0B0E00E2C04C0880F991FAA1FBB1FDC
:100420000A94D2F74C013C0160947094FF242DC0D3
:100430000F2D10E0D201ED91FC91E00FF11FD901D9
:1004400014962D913C9115978B819C816081F901C7
:100450000995F8013496892B59F4EE0FFF1F8B8113
:100460009C81E80FF91F80819181882999290AC010
:10047000EE0FFF1FAB81BC81EA0FFB1F80819181D2
:100480008621972191838083F394F1018081AB8150
:10049000BC812D913C91F81658F2D501ED91FC915B
:1004A000EC0DFD1DD90112962D913C9113978B8176
:1004B0009C81608141E0F9010995EB81FC8180819B
:1004C0009181D501ED91FC91EC0DFD1DDC012D918B
:1004D0003C918B819C81608140E0F9010995E39416
:1004E000E981FA818081E81608F468CF0F900F90B7
:1004F0000F900F90CF91DF911F910F91FF90EF9090
:10050000DF90CF90BF90AF909F908F907F906F9033
:100510005F904F903F902F900895CF93DF93DC0131
:10052000862F90E0FC01EE0FFF1FE80FF91FEE0F82
:10053000FF1FEA0FFB1F50A3478F81E081A3A4593F
:10054000BF4F8C91AC56B040ED01C359DF4F8823AB
:1005500051F0E881F981309771F0662361F45C967F
:100560008C91099508C0288139812115310519F030
:10057000848DF9010995DF91CF9108950F931F9311
:10058000CF93DF93EC01162F042F862F90E0FC0110
:10059000EE0FFF1FE80FF91FEE0FFF1FEC0FFD1FFF
:1005A00011A2878D90A181309105E1F082309105F3
:1005B0001CF4892B39F03FC08230910581F10397FB
:1005C000D1F534C00130B9F5CE0141E050E00E94D0
:1005D0008D020E94F906C85ADF4F688379838A83A7
:1005E0009B8329C00E94F906C85ADF4F28813981B0
:1005F0004A815B81621B730B840B950B6296288189
:100600003981CA56D04040E050E0261737074807E6
:10061000590728F4CE01612F42E050E00AC00023C0
:1006200051F4CE01612F43E050E003C0CE0140E021
:1006300050E00E948D02DF91CF911F910F9108959C
:100640004F925F926F927F928F929F92AF92BF92E2
:10065000DF92EF92FF920F931F93CF93DF93EC0102
:10066000FC017C9620E04FEF5FEF83819481892B22
:1006700021F410825283418315822F5F36962A30EF
:10068000A1F7EE2406E6402E512C4C0E5D1E17E617
:10069000612E712C6C0E7D1EB0E68B2E912C8C0E73
:1006A0009D1E59C02F2D30E0D8018D919C910F2CAB
:1006B00002C0969587950A94E2F7DD24D394D82258
:1006C000852F90E0A89EA001A99E500DB89E500DC8
:1006D0001124420F531FD401ED91FC91E40FF51F3B
:1006E0002081DE01FE0160E070E0858D968D84172B
:1006F000950719F4CE014D2D1EC06F5F7F4F3696C2
:100700006A30710591F752C060E070E05C968C91A0
:100710005C97882399F4FB01EE0FFF1FE60FF71F8C
:10072000EE0FFF1FEC0FFD1F248F568F458F10A279
:10073000178ECE0141E00E94BE0206C06F5F7F4F60
:1007400016966A30710511F7F394F3015081F5168E
:1007500008F4A8CFE394D2018C91E81658F4FF2452
:10076000AE2CBB2485010C5F1F4F000F111F0C0F17
:100770001D1FEBCFFE01B19620E090E0808181113A
:1007800021E09F5F36969A30C9F7822FDF91CF9193
:100790001F910F91FF90EF90DF90BF90AF909F90CF
:1007A0008F907F906F905F904F900895DD2009F0BB
:1007B000ABCFCACFEF92FF921F93CF93DF93EC01A1
:1007C0000E94F9062CE5E22EF12CEC0EFD1EF7013D
:1007D0002081318142815381621B730B840B950B05
:1007E000C859DF4F28813981C856D04040E050E0D9
:1007F000261737074807590710F010E00EC0CE0142
:100800000E948A01CE010E942003182F0E94F9063F
:10081000F7016083718382839383812FDF91CF916E
:100820001F91FF90EF900895CF93DF93EC01C4598F
:10083000DF4F81E08883CC56D040CE010E94DA039E
:10084000882359F089A1882341F08F8D98A10197C1
:1008500021F48C8DDF91CF910895C459DF4F188218
:1008600080E0F8CF6F927F928F929F92AF92BF926B
:10087000CF92DF92EF92FF920F931F93CF93DF936C
:10088000EC014B016A015901702E6E2C02960E94F8
:10089000AB0481E791E0998388833CE1E32EF12C5E
:1008A000EC0EFD1E00E010E0C701800F911F0E94BA
:1008B000B1040A5F1F4F0C331105B1F7CE59DF4F5A
:1008C000C992D992A992B99279926882279799820E
:1008D000888228968AE090E08993999384EF91E04A
:1008E00099838883239619821882619718821982C6
:1008F0001A821B8260961882DF91CF911F910F910F
:10090000FF90EF90DF90CF90BF90AF909F908F902F
:100910007F906F900895862F0E941F080895862F5C
:10092000642F0E94CB0708950F931F93162F042F57
:10093000423021F4862F60E00E94A507812F61E0FC
:100940000E94CB07023021F0812F602F0E94A50763
:100950001F910F910895FC01108214821382158259
:100960000895FC01108214821382158208950F935A
:100970001F938C01FC01868160E00E94CB0781E01F
:1009800090E00E946007F801868161E00E94CB0739
:1009900081E090E00E946007F801868160E00E949B
:1009A000CB0784E690E00E9460071F910F910895A5
:1009B000CF92DF92EF92FF920F931F93CF93DF932B
:1009C000D82EC92E282F392FC9018C01C0E0D0E0C4
:1009D000E62EFF24F801878161E00E94A507B70198
:1009E0000C2E02C0759567950A94E2F76170F801C4
:1009F00087810E94CB0721960F5F1F4FC830D1051A
:100A000049F78D2D9C2D0E94B704DF91CF911F9146
:100A10000F91FF90EF90DF90CF900895CF92DF92EB
:100A2000EF92FF920F931F93CF93DF93D82EC92E8F
:100A3000282F392FC9018C01C0E0D0E0E62EFF2419
:100A4000F801878161E00E94A507B7010C2E02C062
:100A5000759567950A94E2F76170F80187810E94A5
:100A6000CB0721960F5F1F4FC430D10549F78D2D5D
:100A70009C2D0E94B704DF91CF911F910F91FF90A1
:100A8000EF90DF90CF9008951F93CF93DF93EC0109
:100A9000162F8C81642F0E94CB078D818F3F19F018
:100AA00060E00E94CB078F8584FF05C0CE01612FD7
:100AB0000E94D8040EC0612F70E084E075956795A0
:100AC0008A95E1F7CE010E940E05CE01612F0E94AA
:100AD0000E05DF91CF911F91089541E00E944405DA
:100AE00081E090E0089540E00E9444050895FC01F3
:100AF0006089862F8260808B6A60CF010E947305B7
:100B00000895FC016089862F8460808B6C60CF0122
:100B10000E9473050895DF93CF93CDB7DEB7289772
:100B20000FB6F894DEBF0FBECDBF9C01FE0131961B
:100B3000AFE7B1E088E00D9001928150E1F7F90153
:100B40008389481710F0482F4150E42FF0E0EE0F52
:100B5000FF1FEC0FFD1F8181680F6068C9010E94B3
:100B6000730528960FB6F894DEBF0FBECDBFCF91A8
:100B7000DF91089561E00E94730580ED97E00E9487
:100B800060070895CF93DF93EC01423018F08F8512
:100B900088608F874B8B1C8A222329F0413019F4FF
:100BA0008F8584608F8780E593EC0E9460078C813D
:100BB00060E00E94CB078E8160E00E94CB078D81B0
:100BC0008F3F19F060E00E94CB076F8564FD1DC068
:100BD000CE0163E00E940E0584E991E10E94600766
:100BE000CE0163E00E940E0584E991E10E94600756
:100BF000CE0163E00E940E0586E990E00E94600746
:100C0000CE0162E00E940E0516C06062CE010E9415
:100C1000730584E991E10E9460076F856062CE01EF
:100C20000E94730586E990E00E9460076F8560620C
:100C3000CE010E9473056F856062CE010E9473052C
:100C400084E0888BCE010E948105CE010E94BA0506
:100C500082E0898BCE0166E00E947305DF91CF911F
:100C600008956F927F928F92AF92CF92EF920F93EF
:100C70001F93DF93CF93CDB7DEB73C01162F842FA0
:100C8000F301448325830683E782C086A18682869A
:100C90009D8593879E8594879F859587988996875C
:100CA00061E00E94A507F30185818F3F19F061E0A3
:100CB0000E94A507F301868161E00E94A507112328
:100CC00019F0F301178603C080E1F3018787C301A0
:100CD00060E141E020E00E94C205CF91DF911F91C9
:100CE0000F91EF90CF90AF908F907F906F9008957D
:100CF0008F92AF92CF92EF920F931F93CF93DF9388
:100D0000DC01362F542F722F102FAE2C8C2C139603
:100D10001C921E9212978BE791E011969C938E93F2
:100D200000D000D0EDB7FEB73196CDB7DEB719824F
:100D3000118212821382CD0161E0432F2FEF052F24
:100D4000E72EC12E0E9431060F900F900F900F904A
:100D5000DF91CF911F910F91EF90CF90AF908F9037
:100D600008951F920F920FB60F9211242F933F9365
:100D70008F939F93AF93BF9380911502909116022A
:100D8000A0911702B0911802309119020196A11D8D
:100D9000B11D232F2D5F2D3720F02D570196A11D5A
:100DA000B11D209319028093150290931602A0930F
:100DB0001702B09318028091110290911202A09133
:100DC0001302B09114020196A11DB11D809311026E
:100DD00090931202A0931302B0931402BF91AF91AB
:100DE0009F918F913F912F910F900FBE0F901F9069
:100DF00018958FB7F8942091150230911602409102
:100E00001702509118028FBFB901CA0108959B01C2
:100E1000AC017FB7F8948091110290911202A091D9
:100E20001302B091140266B5A89B05C06F3F19F07C
:100E30000196A11DB11D7FBFBA2FA92F982F88271A
:100E4000860F911DA11DB11D62E0880F991FAA1F79
:100E5000BB1F6A95D1F7BC012DC0FFB7F8948091F4
:100E6000110290911202A0911302B0911402E6B502
:100E7000A89B05C0EF3F19F00196A11DB11DFFBF52
:100E8000BA2FA92F982F88278E0F911DA11DB11D54
:100E9000E2E0880F991FAA1FBB1FEA95D1F7861BB6
:100EA000970B885E9340C8F221503040404050403C
:100EB00068517C4F211531054105510571F60895A2
:100EC000019739F0880F991F880F991F0297019792
:100ED000F1F70895789484B5826084BD84B581600B
:100EE00084BD85B5826085BD85B5816085BDEEE632
:100EF000F0E0808181608083E1E8F0E01082808111
:100F000082608083808181608083E0E8F0E080817E
:100F100081608083E1EBF0E0808184608083E0EB9E
:100F2000F0E0808181608083EAE7F0E08081846086
:100F300080838081826080838081816080838081E2
:100F4000806880831092C1000895482F50E0CA0144
:100F500086569F4FFC0124914A575F4FFA018491B6
:100F60008823C1F0E82FF0E0EE0FFF1FE859FF4F94
:100F7000A591B491662341F49FB7F8948C91209584
:100F800082238C939FBF08959FB7F8948C91822BF6
:100F90008C939FBF0895482F50E0CA0182559F4F00
:100FA000FC012491CA0186569F4FFC0194914A5737
:100FB0005F4FFA013491332309F440C0222351F1E9
:100FC000233071F0243028F42130A1F0223011F5C3
:100FD00014C02630B1F02730C1F02430D9F404C059
:100FE000809180008F7703C0809180008F7D8093F7
:100FF000800010C084B58F7702C084B58F7D84BD1A
:1010000009C08091B0008F7703C08091B0008F7DC0
:101010008093B000E32FF0E0EE0FFF1FEE58FF4F7C
:10102000A591B4912FB7F894662321F48C919095F3
:10103000892302C08C91892B8C932FBF0895682F30
:1010400070E0CB0182559F4FFC012491CB01865665
:101050009F4FFC0144916A577F4FFB019491992364
:1010600019F420E030E03CC0222351F1233071F02C
:10107000243028F42130A1F0223011F514C026309C
:10108000B1F02730C1F02430D9F404C08091800041
:101090008F7703C0809180008F7D8093800010C087
:1010A00084B58F7702C084B58F7D84BD09C08091DF
:1010B000B0008F7703C08091B0008F7D8093B00027
:1010C000892F90E0880F991F84589F4FFC01A591AC
:1010D000B4918C9120E030E0842311F021E030E0E5
:1010E000C9010895CF93DF930E946A070E944C01C3
:1010F000C0E0D0E00E94E0002097E1F30E940000F1
:10110000F9CFCF92DF92EF92FF920F931F93CF937D
:10111000DF937C016B018A01C0E0D0E00FC0D601F3
:101120006D916D01D701ED91FC910190F081E02D61
:10113000C7010995C80FD91F0150104001151105AD
:1011400071F7CE01DF91CF911F910F91FF90EF903A
:10115000DF90CF900895DC01ED91FC910190F0813A
:10116000E02D09950895CF93DF93DB010D900020CA
:10117000E9F71197A61BB70BEC01E881F981028012
:10118000F381E02DAD010995DF91CF9108950E9483
:10119000B3080895EE0FFF1F0590F491E02D099418
:0411A000F894FFCFF1
:1011A400446F6F72204C6F636B6564202020202095
:1011B400002020202020202020202020202020204B
:1011C4002000446F6F72204F70656E202020202015
:1011D400202000496E76616C6964205061737377D6
:1011E4006F72640050617373776F7264204163633C
:1011F4006573733A003738392F3435362A31323330
:101204002D43303D2B0302131211100F0E0000006A
:101214000094048F048B04000000006D0581080015
:08122400004000100050000022
:00000001FF
